:020000041000EA
:1000000000B5324B212058609868022188439860DF
:10001000D860186158612E4B002199600221596106
:100020000121F02299502B49196001219960352056
:1000300000F044F80222904214D00621196600F024
:1000400034F8196E01211966002018661A6600F04E
:100050002CF8196E196E196E052000F02FF8012189
:100060000842F9D1002199601B49196000215960AB
:100070001A491B48016001219960EB211966A021F2
:10008000196600F012F800219960164914480160C1
:100090000121996001BC002800D000471248134993
:1000A000086003C880F30888084703B5996A0420EC
:1000B0000142FBD001200142F8D103BD02B5186610
:1000C0001866FFF7F2FF186E186E02BD00000240BE
:1000D000000000180000070000035F00212200005C
:1000E000F4000018222000A00001001008ED00E03C
:1000F00000000000000000000000000074B24E7A12
:1001000000200420F7010010C3010010C5010010F9
:10011000C1010010C1010010C1010010C101001097
:10012000C1010010C1010010C1010010C701001081
:10013000C1010010C1010010C9010010CB01001065
:10014000CD010010CD010010CD010010CD01001037
:10015000CD010010CD010010CD010010CD01001027
:10016000CD010010CD010010CD010010CD01001017
:10017000CD010010CD010010CD010010CD01001007
:10018000CD010010CD010010CD010010CD010010F7
:10019000CD010010CD010010CD010010CD010010E7
:1001A000CD010010CD010010CD010010CD010010D7
:1001B000CD010010CD010010CD010010CD010010C7
:1001C00000BE00BE00BE00BE00BE00BEEFF3058054
:1001D000103800BEF2EB88710C6100103461001021
:1001E0003402001090A31AE700201F49086006C8D7
:1001F00081F3088810471D48006800282FD10DA4FE
:100200000ECC002902D000F012F8F9E71849194A7B
:10021000002000E001C19142FCD1174988471749ED
:1002200088471749884700BEFDE701C901C29A42C5
:10023000FBD3704734610010C0000020C8170020B5
:100240003C78001000000420000004203C780010DE
:10025000001004200010042000000000704709482E
:1002600002F088FA0047000008ED00E0000000D02E
:10027000C8170020B4260020B9250010F103001093
:10028000E12600105756000006005250ABB36053F1
:10029000C85D001006005250861C0302D85D001095
:1002A000060052505422A29DE45D001005005250F9
:1002B000DE65F4683C780010F8B5C0460448054B8C
:1002C00010B5834203D0044B002B00D0984710BDDB
:1002D000C8170020C8170020000000000648074982
:1002E000091A8B10C90FC91810B5491003D0044B57
:1002F000002B00D0984710BDC8170020C817002059
:100300000000000010B5074C2378002B09D1FFF73F
:10031000D5FF054B002B02D0044800E000BF0123AD
:10032000237010BDD019002000000000A85A001052
:10033000054B10B5002B03D00449054800E000BF71
:10034000FFF7CCFF10BDC04600000000D41900200C
:10035000A85A0010F0B557464E464546DE462123C2
:10036000E0B587B004AC23700B78834663704B789C
:100370008A46A3702223E3708B7800272371CB7801
:100380001A4E637116236B4499468023984603AD39
:10039000424623782A706B702A0002233C213000E9
:1003A0000097013404F072FEA145F1D153465B6819
:1003B0005D1C2800984602F0EBFA402304004246F8
:1003C00059460370013002F007FB2B0022003C214C
:1003D0003000009704F05AFE200002F0EBFA07B05C
:1003E000F0BCBB46B246A946A046F0BD600F002057
:1003F000F0B5DE46454657464E46E0B5BA4C5A275C
:10040000A54402F051FCB94802F018FCB849B948BB
:1004100004F012FE0321042000F050FC032105200B
:1004200000F04CFC00220121042000F05FFC0121BF
:100430000520002200F05AFCAF4A1AAB13CA13C3BE
:1004400013CA13C3128800251A800AAB9C4612AB4C
:100450000793802398461AAC674441462378079A4D
:10046000A448117053703C2102230095013404F01C
:100470000DFEA742F1D18022032400259F4B92005C
:1004800000211AA80E930F9202F0A0FA0EA91AA842
:10049000FFF760FFA0469A4F079C022322003C21F1
:1004A00027809448009504F0F1FDFA20400001F007
:1004B000ADFA944B220023803C2102238D48009505
:1004C00004F0E4FDFA20400001F0A0FA01235B42B1
:1004D0009C46E0444346002BDFD110AB059321231B
:1004E0009946013300259846059F4B463B702B00EB
:1004F0001933BB704346FB7000233B7103337B71A0
:100500007D707D3310AF3C009A4623780AAA53735E
:10051000514600231173774800930DAA02333C2102
:1005200004F0B4FD0AAA1E239446013463449C429D
:10053000EBD1692002F02CFA4023040003706822FA
:100540007149013002F048FA002322003C21009357
:10055000684869331F3504F099FDEDB2200002F0C0
:1005600029FA5D2DC1D126233C001093674B0597D6
:100570001193233523780AAA5373002315733C2162
:1005800000935C4802330DAA04F080FD079B013400
:10059000A342EFD15E4801F039FA2623802510935B
:1005A0005C4B059C119323780AAA5373002315739F
:1005B0003C2100934F4802330DAA04F067FD079BCE
:1005C0000134A342EFD11A004B4B94251C3313CBBB
:1005D00013C213CB13C203CB03C212AB079308930E
:1005E0000023552404936D00049B182B00DD2DE19E
:1005F000089B1B681F789B46002F00D11CE16B46AF
:1006000005215846BC4610229B5EDB10DB01069399
:10061000414B01301B780393002B00D1F3E0782984
:1006200055DC62463D4B9B5C032213406246022B25
:1006300002D1203AD3B29C466346413B192B00D8E5
:10064000C2E16346303B092B00D9ADE1FF231A40DC
:10065000153AD200531C9A46931C9946D31C9846CF
:10066000131D9C46531D0993931D0A93D31D0B9391
:100670009026069BB600CB189B190AAEB346284EAF
:100680005B44B346244E9B44B25C5E465746327090
:10069000214E244AF65D4F469A1816701E4EFA3BBC
:1006A000F65D474656701C4EFF3BF65D67469670FA
:1006B000194EF65D099FD670174EF65D0A9F1671AA
:1006C000154EF65D5671144A0B9E925D1A700378B2
:1006D00008319C4609B2002B00D1ADE0039B002BF2
:1006E00096D067467BE0C04694FDFFFF5C5B001040
:1006F000801A0600600F0020945B0010007F00034A
:1007000080A5FFFF80A4FFFF180E00200300FF2F2D
:10071000881300000300FF2E502400200960001001
:1007200000FEFFFF01FEFFFF303F092F00D92CE143
:10073000FF231A40153AD200531C9A46931C99463F
:10074000D31C9846131D9C46931D0993D31D571D1A
:1007500003939026069BB600CB189B190AAEB346AE
:10076000E64E5B44B346E64E9B44B25C5E46327056
:10077000E44AE34E934652469B44B25C5E46327076
:100780001A00FF3AFF3A92464A46DD4EB25C5646A0
:1007900032701A00FE3AFF3A91464246D84EB25C99
:1007A0004E4632701A00FD3AFF3A90466246D44EE9
:1007B000B25C464632701A00D14EFC3AF75DFF3A01
:1007C0001770099FFA3BF75DFF3B57703200039E9D
:1007D000925D1A700778083109B2002F2CD00130D1
:1007E0007829F7DC0322C84BDB5D13403A00022B6B
:1007F00001D1203AD7B23B00413B192B94D8FF23BB
:100800001A40403A97E700223326C04B9B5C1F09F1
:100810001B011F43FFB2BB10BF00B74333403B4334
:10082000DBB25F105B00B64E2740A3433B43B3549B
:100830000132AA42E8D1F2E6049B08330493089BF4
:1008400004330893049B182B00DCD1E6089A083384
:10085000043204930892402B00D0C5E62123059A68
:10086000802513700AAB1B7C53700AAB5B7C9370C2
:100870002223D3700AAB9B7C13710AABDB7C5371D0
:1008800010AB1C00059323780AAA53730023157339
:100890003C2100930DAA02339D4804F0F7FB0AAAFD
:1008A0001E239446013463449C42ECD10F9F0026E2
:1008B0007D1C280002F06CF84023040003703A000D
:1008C0001AA9013002F088F82B0022003C21904840
:1008D000009604F0DBFB200002F06CF88D4801F07C
:1008E00095F8059D8C4B2A003C212B8088480223DB
:1008F000009604F0CBFB874801F088F8874B2A006C
:100900002B803C2102238248009604F0BFFB022387
:100910000893013B06937F23049300237F240393D2
:10092000049BDA179B1853409C4601239846039B6F
:100930009C4202DC01235B4298466346069A0027EC
:1009400003981F3B002A00D054E192460732934699
:100950005946012639408E40B146402652460AA9E2
:1009600089194E46D2011218895C0AADB14340265E
:10097000AD19A954844230D05A0011001F3127DA32
:100980000137FA1092466344E2E707230393013BE1
:100990000993023B9C46013B9846013B9946013B2B
:1009A000052700229A46D4E607230B93013B0A93BE
:1009B000013B0993013B9C46013B9846013B99460C
:1009C000013B00229A4653E6FF231A40403A40E694
:1009D0001F3B40449445BBDBD2E71F2FCCD12123E2
:1009E000059A13700AAB1B7C53700AAB5B7C937047
:1009F0002223D3700AAB9B7C13710AABDB7C53714F
:100A000010AB1F000593802398463B780AAA5373C6
:100A10004146002311733E4800930DAA02333C2146
:100A200004F034FB0AAA1E23944601376344BB42F8
:100A3000EBD10F9B013C994601234B44180098468B
:100A400001F0A6FF4023070003704A461AA90130AF
:100A500001F0C2FF00233A003C2100932C4843469A
:100A600004F014FB380001F0A5FF039B049A013346
:100A7000023A03930492802B00D051E79F3B9846A3
:100A80003E33994600239A46013B03935346049311
:100A90001F234946049A9A1A6033581A069B002B62
:100AA00000D0CEE01900D7177E0FB2469446D4444A
:100AB0006646072426405446361BB4460126644643
:100AC000A64007234025B2463B409B18DB10DB01C4
:100AD0000AAC5B186419E45C26005446A643340053
:100AE0000AAE7519EC547F2920D04300984517DDD4
:100AF000039B7F309C466244D717D5E700FEFFFF7B
:100B00005024002001FEFFFF09600010E45B00108C
:100B1000600F0020B80B000080A7FFFF80A6FFFF3A
:100B20004C460131001B7F2BBEDCE1E7049B9A425F
:100B3000DBD12123059A13700AAB1B7C53700AABDF
:100B40005B7C93702223D3700AAB9B7C13710AAB3E
:100B5000DB7C537110AB984605938023474699463A
:100B60003B780AAA537349460023117352480093F5
:100B70000DAA02333C2104F089FA0AAA1E239446E6
:100B8000013763449F42EBD10F9B9A4601235344A4
:100B90001800994601F0FCFE40238046037052463F
:100BA0001AA9013001F018FF002342463C210093AE
:100BB00041484B4604F06AFA404601F0FBFE049BB4
:100BC0001F2B70D01A00013253001F3BD817191881
:100BD00041408946D917CB1A4B40984601211F2323
:100BE00004929B1A03919A4200DD51E701235B4274
:100BF00003934DE700229246073293465946012659
:100C000039408E40524631004026D2010AAD1218BA
:100C1000AD19AE5C0AAD31434026AD19A9548442EA
:100C20000CD05A0011001F3103DB1F3B4044944598
:100C3000E4DB0137FA1092466344DFE71F2FF0D15F
:100C4000CDE600231900D7177C0FA2469446D44462
:100C500007246646264034005646A41B0126072377
:100C60004025A6403B409B18DB10DB010AAC5B181B
:100C70006419E45C264334000AAE7519EC547F29EC
:100C80000DD04300434504DB4C460131001B7F2B54
:100C9000DADC039B7F309C466244D717D4E7049B81
:100CA0009342EED145E700230693089B012B00D128
:100CB00015E4012308932EE6600F0020094A830003
:100CC00094464022634410B51C68C0006240C024B2
:100CD00014408022520113431C60034B9C46604425
:100CE000416010BD04C00140004001400A4B80003B
:100CF0009C4604236044002901D00C230821002ACB
:100D000000D10B00026853400C221A4080235B0183
:100D1000184302607047C04604C00140024B186887
:100D20008007C00F7047C04600C0064070B5EFF3A3
:100D3000108C72B60D4D2B68002BFCD0BFF35F8F6B
:100D40000724CB08C618C05C01230C40A3401C003C
:100D50000440034207D103433370BFF35F8F2C601D
:100D60008CF3108870BD100001F0BEFC2C0100D087
:100D7000F8B54746CE46884680B5EFF3108C72B67C
:100D8000214D2C68002CFCD0BFF35F8F9A422CD8E9
:100D9000D4080727055D061901241740BC402C42E2
:100DA0001FD007210127894609E0D408055D0619EF
:100DB0004C4639001440A1400C00294211D00132A8
:100DC0009342F2D201204042BFF35F8F00220E4BCC
:100DD0001A608CF3108800280FDBC0BCB946B046FF
:100DE000F8BD2C4310003470EEE7BFF35F8F002393
:100DF0002B608CF31088012040424346002BECD03E
:100E0000089801F071FCC0462C0100D00021044B71
:100E1000044ABFF35F8F02C39342FAD17047C046C2
:100E2000000100D0800100D0044A1078431CDBB2DE
:100E3000172B00D9102313707047C046800E002076
:100E400000B5054B83B00100009318221F2303480F
:100E5000FFF78EFF03B000BD0C5D0010801F002067
:100E600001238340002904D0034A1360034A13601E
:100E70007047034A1360FBE780E200E000E100E016
:100E800080E100E001238340014A13607047C046BF
:100E900000E200E0084B10309B688000C358002B34
:100EA00007D0064A00209B1A2F229A424041C0B226
:100EB00070470020FCE7C04600ED00E0840E0020F3
:100EC000024B10309B688000C058704700ED00E076
:100ED00070B50D00EFF3108672B60F4A1368002B41
:100EE000FCD0BFF35F8F0D4B10309B6884001B5903
:100EF0000B4A934203D09D4201D001F00DFC074BF9
:100F00009B681D51BFF35F8FBFF35F8F0022024BC1
:100F10001A6086F3108870BD240100D000ED00E057
:100F2000CD010010F0B557464E46DE464546E0B5C9
:100F300085B0060002911700EFF3108B72B6674A76
:100F40001368002BFCD0BFF35F8F0025644B5D5707
:100F50009A46002D00DAA4E06B00624C03935B1903
:100F60009B009846A146C1444B4652469B79103699
:100F700013705D4BB2009B68019299580B1B2F2B8D
:100F800034D95A4B994200D0A4E0039B584A9C465E
:100F9000584B6544AD006353434602336519E4186A
:100FA000554B0121043B1B1B1B055B0D13436B8041
:100FB000524BEF71AB80FF23AB71029BAB604B4692
:100FC0000B431900484B019A9B689950BFF35F8F00
:100FD000BFF35F8F0022414B1A608BF3108805B07E
:100FE000F0BCBB46B246A946A046F0BD01200A00AF
:100FF0008243D379BB422FD845464E461300404921
:101000001B1B5B415943090D3A4B63533A4B023565
:101010006519043B5B1B1B05354D5B0D2B43738032
:101020000426B446E0444444131F1B1B4C46A171E4
:1010300002991B05A16049465B0D2B43A380314BF0
:10104000E77101431360BDE75800C0188000201805
:10105000C679BE422BD902000623D356002BF3DA01
:10106000101D82462848804604267642B446E14454
:1010700050464E46361A3005400D824656461C48AC
:10108000957106439680039A944665441D4AAD00C7
:10109000641922604246A371029BA280E771A3609B
:1010A00090E701F039FB002553465D5754E7101DCA
:1010B000824690884005001584464046D4446646E2
:1010C00004302018301AE0260005400D3602304367
:1010D0008046C9E701F020FB57E7C046240100D055
:1010E000AD260020840E002000ED00E0CD010010B0
:1010F00000E0FFFF00A1FFFFB40E002001BDFFFFD5
:10110000AAAA00000148804701BD0000F0B5DE46F4
:1011100057464E464546E0B50C0083B0EFF31089C4
:1011200072B6584A1368002BFCD0BFF35F8F564B42
:101130009A68030010339F00D559544A904695424F
:1011400032D0A54243D0524EAA1B2F2A2CD80122BE
:101150008240924651464F4A1268114001915146D1
:101160004D4A1160BFF35F8FEFF305829346002A6B
:1011700033D101232A009A4393689C4208D177E037
:101180004B005B189B00F3189968A1422AD01A0003
:10119000062151560029F3DA019B002B19D0524643
:1011A0003E4B1A603B4B1A60374B9B68DD51BFF3D7
:1011B0005F8FBFF35F8F0022324B1A6089F3108874
:1011C00003B0F0BCBB46B246A946A046F0BD150030
:1011D000EAE75246304B1A60E6E79342C9D001F085
:1011E0009BFAC6E706215956002921DB4A00501810
:1011F000800034188046A0689860E079D871062095
:1012000020569871002824DBA488F01A6405241560
:1012100044440019E0240005400D24022043988036
:1012200052181F4B9200B6181A781970B271B3E7B2
:10123000594600290FD1FF3191711A4991801849FF
:101240000A789A71184A9B1B5B415A43120D0A7027
:10125000A2E71648E3E7164A1649D21A083A50029E
:10126000400D01439980144952080A43DA8093E7FC
:101270000621515613000029B8DA5A46002AEAD14D
:101280004546DCE7240100D000ED00E0CD01001070
:10129000840E002000E100E080E100E080E200E058
:1012A000AD26002001BDFFFFAAAA000001BD00007D
:1012B000BE0E002000F0FFFF00F8FFFF70B5EFF357
:1012C000058101240443EFF3108C72B6214A1368A0
:1012D000002BFCD0BFF35F8F1F4B05001F4AED1A98
:1012E0006D416A43120D1E4D8900AE6852B27658A8
:1012F000A6421CD00621595691421CD012215956A3
:10130000914222D01E215956914220D02A2159566D
:101310000324914210D0134B19781A708171BFF3D6
:101320005F8F00220B4B1A608CF3108870BDAB6886
:101330000D4C5C50EFE700246100091989005B182F
:10134000FF21997109499980E5E70124F4E7022416
:10135000F2E7C046240100D0840E0020AAAA0000B3
:1013600000ED00E0AD260020CD01001001BDFFFF23
:10137000054B064A1360064A136053609360D360BE
:1013800013615361936170478080808000E400E0C6
:1013900004E400E000B5074B83B001000093002295
:1013A00005230548FFF7E4FC002801DB1F23181A7A
:1013B00003B000BD285D0010B2260020024B9C4601
:1013C00061448900016070474000003410B504009A
:1013D000FFF72AFD01002000FFF7F0FFFF23237134
:1013E000BFF35F8F10BDC04610B50400FFF71CFDB2
:1013F00001002000FFF7E2FFFF23A380BFF35F8F10
:1014000010BDC04610B504000120FFF719FD044BC4
:101410009C46604480002060BFF35F8F10BDC046D3
:1014200040000034034B9C46614489000160BFF3D7
:101430005F8F70474000003483680B4810B58446C6
:1014400061446244090112019A18591854684B68A2
:1014500001209C4201D802D00020C0B210BD126809
:101460000B689A42F9D8F7E7FFFFFF0F0A4B19689C
:10147000EFF3108072B60A68002AFCD0BFF35F8FCA
:101480001B68BFF35F8F00221A6080F3108840BF93
:10149000002000217047C0467C260020F8B5574642
:1014A0004E464546DE46E0B599460CAB1C780DAB82
:1014B0001B78060090469A460768002C11D1BC7B29
:1014C000002C42D065003B682D19033D59194B781B
:1014D000BB73002B00D1FB7300238B704B700B7020
:1014E00004E065003B682D19033D5919B2682A4B89
:1014F00094464246E3181B0163441A604A465A6008
:101500000A9A9A600B9ADA6000238B704B700B700A
:101510007B7B9B46002B2BD022005946B8687B680A
:1015200098473A68002816D05B4658465B005B44F3
:101530005519033BA870D118D35C002B00D06B70F9
:101540005B460C707B73A34513D0F0BCBB46B24620
:10155000A946A046F8BD5B465B005B44033BD3183D
:101560009C705119525D002A00D05A705B460B7076
:101570007C7342464B46307D00F096FB051E06D03C
:101580005346002B03D12100306800F0B1FD0E9BC3
:10159000002BDAD01D70D8E7FFFFFF0FF0B5DE4655
:1015A00057464E4645460023E0B58BB00893674B3F
:1015B0008200D45800239B46099000F015FB626816
:1015C00006000F00EFF3108572B61368002BFCD0F5
:1015D000BFF35F8F23689C465B7B9946002B00D14D
:1015E00069E0A2685A4B90464B441B01984443461D
:1015F0001A685B6810001900801BB941002900DCE3
:1016000063E0099800F050FB002300229846002375
:101610000692079300239A466368BFF35F8F5A468A
:101620001A6085F310885346002B08D10028C4D1D6
:101630000BB0F0BCBB46B246A946A046F0BD089B25
:10164000414618024B461843D047626806000F0017
:10165000EFF3108572B61368002BFCD0BFF35F8FD9
:10166000002F50DB33003B4302D02369002B61D1B4
:101670002368D97B002907D04A00521819688C4684
:1016800049466244033A51709A7B002A01D14A4686
:101690009A734A46DA734B46E168013BCA5C0132F1
:1016A000CA545B4623616368BFF35F8F5A461A6072
:1016B00085F3108881E700230022984600230692D4
:1016C0000793002300209A46A6E7002902D10028AC
:1016D00000D096E70021604600F088FC43461A6877
:1016E0005B680692079343469B689A464346DB68CD
:1016F0009846E3684B44013B1B7808931B02034365
:101700002361002088E72369002BB1D0069A079B4C
:10171000921BBB41002B15DB59460491012103911B
:101720004946029141460191514620000091FFF740
:10173000B5FEB6E700F058FA32003B0012184B41F4
:10174000002BE9DA0122034B5242E5E7382400205E
:10175000FFFFFF0FFFFFFF7F10B5144C6368002BE6
:1017600004D00A211248FFF729FE10BD2300114AB8
:101770001021206800F054FB032000F029FA032018
:1017800000F0FCFA03200C4900F048FAFFF74CFB8C
:101790000A4B9C4603232375D0231B061B68604419
:1017A0006375074B80006060DC60DAE7CC0E0020D8
:1017B0007C260020391400109D15001040000034D4
:1017C0003824002000487047CC0E0020F0B54E466B
:1017D0004546DE465746E0B585B0019310AB1B7811
:1017E0000600039300239946984600927268EFF32F
:1017F000108B72B61368002BFCD0BFF35F8F356877
:10180000AC7B002C3DD067002B683F19033FDB19F0
:101810005A78AA73002A00D1EA73B168474A8C4605
:1018200000980199A21812016244106051600E994B
:1018300091600F99D16042469A705A701A706B7B12
:101840009A46002B67D022001900A8686B68984759
:101850002A68002852D0534650465B005344D7199B
:10186000033BB870D118D35C002B00D07B7053467B
:101870000C706B7354454FD0F3681B19013B1878FB
:1018800000E000207368BFF35F8F42461A608BF35D
:101890001088002C4FD04B46002B08D1000220436B
:1018A00005B0F0BCBB46B246A946A046F0BD039BBE
:1018B000002B3ED00E9B00200F9998470300040098
:1018C0000D000B4335D000290ADA009A019B121B48
:1018D000AB4100920193002B0ADB039B994685E7FD
:1018E00000F082F924184D4100940195002DF4DA9E
:1018F0000123134C5B4200930194EEE753465B00D7
:101900005344033BD3189C70D119D25D002A00D0F8
:101910005A7053460B706C73307D009A019B00F037
:10192000C3F981460028A7D02100306800F0E0FB11
:10193000A2E70020B4E701204042B1E7FFFFFF0F1C
:10194000FFFFFF7F407D7047F0B504000D000626C5
:101950007642F717C64636196F4100B584B08F42FC
:1019600014D811D000F040F932003B00121A8B411C
:10197000002B15DC002B3ED02000290000F03EF9A2
:1019800004B080BCB846F0BD8642EBD900260027E3
:1019900000F02AF932003B00121A8B41002BE9DDDE
:1019A000002302930193154B3200009314483B002F
:1019B000FFF70CFF0028DFDB00239846BC46114AE6
:1019C000114F7B6A9C4504D8B96A8E42D4D99C4594
:1019D000D2D11168EFF3108072B60B68002BFCD0E7
:1019E000BFF35F8F1368BFF35F8F4146196080F3C9
:1019F000108820BFE5E7002ABED0D1E76D140010A3
:101A0000CC0E00207C2600200040054070B506006A
:101A100000F0EAF8FA2204000D0000233000002153
:101A2000920000F067FF00196941002902DBFFF70F
:101A30008BFF70BD012001494042F8E7FFFFFF7FA7
:101A4000F0B5EFF30583CE46474680B505000C00A0
:101A500085B0002B12D02C4A0020536A9C4203D838
:101A6000926A0130AA4204D305B0C0BCB946B04660
:101A7000F0BDE01A421E9041C0B2F5E7234E02933A
:101A80000193234B0200009330000B00FFF79EFEF2
:101A9000031EE0DD20BF7168EFF3108772B60A689D
:101AA000002AFCD0BFF35F8FDAB294463068427BE5
:101AB00062451DD0FF221A405100894601689144B9
:101AC00088464946414403398978002913D0F16892
:101AD0001B0A88464244013A1278DBB29A420FD080
:101AE0007368BFF35F8F00221A6087F31088B2E734
:101AF000FF221A40EBE732699342F1D13161EFE7FF
:101B0000614600F0F5FAEBE700400540CC0E0020FE
:101B10006D140010F0B5EFF30582D6464F464646E9
:101B20001000C0B51038EFF3108872B6214C23684E
:101B3000002BFCD0BFF35F8F0123190081401E4DA5
:101B40001F006963AA461D4D29601D4D2E78AC46C5
:101B50003500C5402F402B4209D1BFF35F8F27606E
:101B600088F31088E0BCBA46B146A846F0BD53469B
:101B7000144D5F6A83005D59AF420ED3124A8E4303
:101B80009B5862461670BFF35F8F0022226088F375
:101B90001088002BE6D09847E4E70C4B92009C4657
:101BA000624413681360BFF35F8F0023236088F3E0
:101BB0001088D7E7280100D0004005403C70054060
:101BC000B126002088260020681E0020D03F054056
:101BD00010B50100024A0348FFF7A8F810BDC0463F
:101BE000445D0010AC260020034B596A0A00986A35
:101BF000596A8A42FAD1704700400540064A536A42
:101C00009942FCD807D1044B02E05A6A914202D1B2
:101C10009A6A8242F9D370470040054070B50400CB
:101C20000D00EFF3108672B61A4A1368002BFCD031
:101C3000BFF35F8F002D1BD02000FFF741F916493D
:101C400081420AD02000FFF743F901212000FFF76D
:101C500007F90123A340114A1360114BA400E5507A
:101C6000BFF35F8F00220B4B1A6086F3108870BDA4
:101C70000B4BA200D5500122A2400A4920000B784C
:101C800093430B700449FFF741FA00212000FFF74E
:101C9000E7F8E5E7280100D0151B00103860054083
:101CA000681E0020B1260020F0B54F46D6464646B5
:101CB000C0B507002C4C616A0D00A66A616AA94292
:101CC000FAD18B4208D805D00120E0BCBA46B14613
:101CD000A846F0BDB242F7D9EFF3108A72B6234896
:101CE00001680029FCD0BFF35F8F0125BD4020496A
:101CF0001D4C8846097889462943C9B28C4641461D
:101D000060460870391D1B48890065630A51B90097
:101D10000B50216A0020294219D0616A0800A66A86
:101D2000616A8142FAD18B4219D801D1B24216D8E8
:101D3000CC4516D00C4B1F201D625D63012307406C
:101D4000BB400D4A1E38136043464A461A70BFF323
:101D50005F8F0022054B1A608AF31088B5E70020D8
:101D6000F5E70120F3E7C04600400540280100D018
:101D7000B12600208826002080E200E0EFF3108CDE
:101D800072B60A490B68002BFCD0BFF35F8F0123AA
:101D90008340074A0748136202789A430270BFF3F0
:101DA0005F8F00230B608CF310887047280100D0F0
:101DB00000400540B126002070B505001400160053
:101DC000002915D00C00002A12D080686B68984753
:101DD000296800280ED073009B196200033B12197A
:101DE000CB18033A9C7088188A5C002A15D10670BB
:101DF000200070BD63001B197200033B9219CB18C1
:101E0000033A9E7088188A5C002A02D1047034005C
:101E1000EEE75A7004703400EAE75A700670E7E79C
:101E200030B583600023CCB2437301330473426046
:101E30008373C4730D000068012C06D9421C013362
:101E4000DBB2137003329C42F9D1FF2129404B00D1
:101E50005918002340180338437030BDF8B5CE46FA
:101E6000474606000C0080B5002907D04D000368E6
:101E70006D18033D5A195778002F04D12000C0BCBB
:101E8000B946B046F8BD7900C919033988464344BC
:101E90005978894600215970517073683A002100C1
:101EA000806898473368002814D042469A18947086
:101EB00059195B5D002B00D053700F702700494605
:101EC0003000FFF7CBFF390002003000FFF774FF4E
:101ED0000400D3E7424641465D19AF709A185B5C37
:101EE000002B00D06B701470E9E7C046F0B5574680
:101EF0004546DE464E46E0B50D006B0001685B19B5
:101F0000DF1E0400C85D83B00192CA19002850D0BA
:101F100043001B18033BCB185E78B446002E1AD141
:101F2000019E002E42D0E67B002E04D073009B1948
:101F3000CB18033B5D70A37B002B00D1A573E57329
:101F400000282FD10023537003B0F0BCBB46B2462B
:101F5000A946A046F0BD72006244033A89184A7847
:101F6000904600224A7091465A70010032002000CB
:101F7000FFF722FF43468246002B07D05B00216813
:101F80004344033BCB185A78002A16D142465146A7
:101F90002000FFF711FF2168019BCA19002BC2D155
:101FA0000028CFD043001B18033BCB1800219970A9
:101FB000C8E7019B002BB6D1C4E750008018033856
:101FC00009184878834648464870587041462000B2
:101FD000FFF7F2FE594680462000FFF73FFF4146DB
:101FE00002002000FFF7E8FE8046CFE7F0B5574635
:101FF0004546DE464E46E0B583B00191457B040080
:102000006B0000685B19DF1EC15DC219002952D048
:102010004B005B18033BC3185E78B446002E1CD1FE
:10202000019E002E44D0E67B002E04D073009B1945
:10203000C318033B5D70A37B002B00D1A573E57330
:10204000002931D1002328005370617303B0F0BC24
:10205000BB46B246A946A046F0BD72006244033AB0
:102060008018427890460022427091465A702000B3
:102070003200FFF7A1FE43468246002B07D05B00EB
:1020800021684344033BCB185A78002A17D14246B3
:1020900051462000FFF790FE019B01002068C21905
:1020A000002BC0D10029CDD04B005B18033BC318D7
:1020B00000209870C6E7019B002BB4D1C2E7500006
:1020C0008018033809184878834648464870587085
:1020D00041462000FFF770FE594680462000FFF77A
:1020E000BDFE414602002000FFF766FE8046CEE7B7
:1020F00070B5040000292CD0437B8B422ED005689C
:1021000048004018033828188278002A21D053004C
:102110009B18033BEA5CEE188A4202D11BE0002ABE
:1021200008D053009B18033BEB185A788A42F6D12B
:1021300042785A7000230122837043702000FFF719
:10214000D5FE617B02002000FFF736FE60730120A0
:1021500000E0002070BD43783370EBE701221900E6
:10216000FFF7C4FE60730120F4E7C04630B50C20D1
:1021700083B000F0B9F9FEF7D1FD00280ED0994BDD
:10218000994A1A605A609A60DA601A615A619A61D3
:10219000DA611A62954A5A6203B030BD944CA06766
:1021A00000F0F6F90122934B1A60636C012BFCD10D
:1021B0000322914B1A608E4A936B012BFCD10133A1
:1021C00001218E4A8E480093043300F03DF9052327
:1021D0008C4A009301218C4800F036F98B4B5A68E9
:1021E000FF2A02D8802252005A6080227D4C824B06
:1021F00021691201854D1A60002907D0606900F03D
:10220000EBFA431C5800C0180338FDD2E0217F4B85
:1022100002201A681140802252012A431160196875
:10222000484003210140116004219A681142FCD00A
:102230008022802192012A430901116080225200EC
:102240005A60734B2361734B5968FF2900D85A6059
:102250000321684A6F4B116002399A681142FCD021
:10226000E0201A681040802252011A43106018685A
:102270004840032101400220116066498A681042EB
:10228000FCD0802292011343802212011A60802226
:10229000614B52004A606361604B5968FF2900D866
:1022A0005A6080225E4BE16912015C4D1A60002980
:1022B00007D0606900F090FA431C5800C01803383A
:1022C000FDD2E02255490B681A4080235B012B4365
:1022D0001A60802380229B012B4312011A60802206
:1022E000414B52004A60E3614E4B5968FF2900D8C8
:1022F0005A6080224C4B216A12014A4D1A60002913
:1023000007D0606900F068FA431C5800C018033811
:10231000FDD2E02243490B681A4080235B012B4326
:102320001A60802380229B012B4312011A608023B4
:1023300080225B004B602C4BD20223623B4B5968DE
:10234000914200D25A608022394B616A1201374DA6
:102350001A60002907D0606900F03EFA431C58005B
:10236000C0180338FDD2E02230490B681A408023A0
:102370005B012B431A60802380229B012B431201B7
:102380001A608023DB024B60184B6362294B5A684A
:10239000FF2A02D8802252005A608022264BA1696F
:1023A0001201244D1A60002907D0606900F014FA68
:1023B000431C5800C0180338FDD2E0221D490B68A9
:1023C0001A4080235B012B431A60802380229B01EB
:1023D0002B4312011A6080235B004B600E4BA361FC
:1023E000DAE6C046841F0020006CDC021BB7000048
:1023F000008000403CB0004030B00040002F6859E1
:1024000000800240008C864700C0024030800040BF
:10241000001BB7003C8000404059730754800040C7
:1024200054B000406080004060B000406C800040CC
:102430006CB000404880004048B00040014B800034
:10244000C0587047841F0020F8B5040021481D00C3
:1024500017000E0000F0C0F90100380000F0BCF9D0
:10246000069B29041B0319432368002B20DB1A4B0E
:102470001A4DE21853425A4180235B019C461203D5
:10248000174B62441A60174B1A601700AB689F43E2
:10249000FBD1C022231D92011A4321232660A06094
:1024A00013602368002BFCDA0823E1601360F8BD99
:1024B0003F2322681340B342D9D1A3681B051B0DEB
:1024C0008342D4D1EE22E368D20213408B42CED1B4
:1024D000EDE7C046001BB7000040FDBF00C0004054
:1024E00000E0004000F000408023024A9B000343CC
:1024F000D36270470080054010B5140080221B4B4A
:10250000D2051A6000281AD00123194A1843194B22
:10251000DA61194A42401A62596298628022134B6A
:10252000D2051A601549164A1160E022D2041A60D9
:10253000002C07D18022134B12061A6010BD0D4BE0
:10254000D861EBE763011B1B9A008023121912016B
:102550005B049A4200D30C4A0C4B1A60054B5A603C
:102560008022084BD2051A60E8E7C04600B005405B
:10257000D3C007B0008005402D3FF84FFCFF01009D
:102580000820014000A00540FFFFFF002824002094
:10259000AA23064A1B0113602F230549D360054B6C
:1025A00019605368002BFCDA7047C04600400240B7
:1025B00000B0FA00006002402C4B2D4A70B51A6042
:1025C0002C4A2D4B2D491A6014008B689C43FBD17B
:1025D0002B4D2C4EB54208D2013E761BB60808CDD5
:1025E000984723000134B342F9D1FFF7BFFD264AD3
:1025F000214B1A60214A9368DB43DB01DD09002B84
:10260000F9D14022214B224C224E9A675A671A6711
:10261000DA66B44208D223682000002B20D00834A8
:10262000FEF7E2FEB442F6D31B4E1C4CC022A1685A
:10263000300000F0D1F9A660FEF7E8FBFEF798FE47
:10264000FFF78AF8164C174EB44208D2013E361BEB
:10265000B60808CC98472B0001359E42F9D170BDD1
:102660000834FEF7B3FEB442D5D3DDE700E0004006
:10267000BFCDFBFEFE7F3C0000F0004000C00040EC
:10268000B0170020C0170020FFFFFF0100F001403D
:10269000A8170020B01700200000002000ED00E087
:1026A000C0170020C817002000BEFDE7094A03003C
:1026B0001068002805D00849C3188B4207D813605A
:1026C000704706480449C31810608B42F7D90120AF
:1026D0004042F5E72020002000000420B42600201E
:1026E00010B5FFF7E1FFC0460FB400B5084883B04E
:1026F00000F0A4FA049B002B07D005A91800019153
:1027000000F018F8034800F099FA0120FFF7CCFF19
:10271000685D0010785D001010B50148FFF7E4FF18
:102720007C5D001010B5002800D110BD00F03AFA11
:10273000FBE7C04610B5094A0300146884B0002CBA
:1027400008D0012200910648524203A9A047012067
:1027500004B010BD00F072FA0020F9E72424002034
:102760002527001001480421014B1847000F0020C5
:1027700095270010142310B50100188804331B8816
:10278000984710BD162310B50100188802331B8826
:10279000984710BDF8B54746CE4680B50F1E19D0F4
:1027A00014239946043304000025012698464B461D
:1027B0001888434621681B88984701C4431E9841E6
:1027C000013540420640AF42F1D13000C0BCB946AD
:1027D000B046F8BD0126F8E7114A936F9B0813D263
:1027E00010665166002905D0FFE7FFE7FFE7516F4C
:1027F000106F704704B5002801D00020C04303F0DB
:1028000013F9002104BDC046F0B5146E556E576F24
:10281000166FFFF7E5FF1466556657671667F0BD3C
:10282000000000D010B50148FFF75EFF885D001082
:10283000132370B51D78012D11D035DD1C48FFF72D
:10284000A1FF1C4C01008022200000F0C5F8022DE1
:1028500027D01948FFF78EFF184B186070BD184B32
:10286000144C23606360A360E36023616361A36130
:10287000E36123626362A362E36223636363A3632E
:10288000E36323646364A364E36423656365A3650E
:10289000E36523666366A366E36623676367A367EE
:1028A000E367084BA364D4E7024C064BA364D0E76C
:1028B00053440000D01800204C330000782500203D
:1028C00025280010C928001007B5604601880A0AAB
:1028D0000230DF2AFAD1C9B2820804D302884088C4
:1028E0000004104300E00068014A5050039007BD07
:1028F000D018002051434343C9188C46110C83B2B1
:102900004B4310B4040C614392B280B25043624313
:102910001C041B0C001910BC59411304120CC018E4
:10292000514161447047000010B50148FFF7DCFEDB
:102930001C5B0010132310B510481C78FFF722FF12
:102940000100012C0AD003DD80220D4800F044F87C
:102950000C48FFF70FFF0C4B186010BD084C5422B9
:10296000200000F039F82300084A8033216800294C
:1029700000D122600434A342F8D1E9E753460000B5
:102980007C2500204C3300007825002029290010E8
:1029900010B5040002F0E2FB002804D0034B041938
:1029A0009C4200D810BD0248FFF79EFE00000420A4
:1029B000A05D001010B502F0DBFB10BD0148042142
:1029C000014B1847100F002095270010014B1B6882
:1029D00018470000100F0020014B5B6818470000EB
:1029E000100F0020030010B5080011001B68984765
:1029F00010BDC046F0B546464F46D646C0B5437DED
:102A000080460E001700002B46D0002A3FDD4B1EEB
:102A10009946244B0125002400209A460DE04B46A0
:102A20001B5D0D3B5A425341325DDBB20A2A0BD08B
:102A30002B00013401359F421ADD002CEFD14346B3
:102A4000325D1B7D0A2AF3D1002BF1D1A04204DABA
:102A50004346211A1B6830189847434650461B6866
:102A600002219847013428002B0001359F42E4DC05
:102A7000874204DD4346391A1B6830189847F61917
:102A8000013E33780D3B5A42534142461375E0BC38
:102A9000BA46B146A846F0BD036811003000984719
:102AA000F5E7C046145E0010F0B5DE4657464E46C8
:102AB0004546E0B585B017001C0006000D00FFF785
:102AC00093F80023304A12184B41002B58DB2F4952
:102AD00008008A4602F0C0FF01906B1C03D1300051
:102AE00002F020FE0500002C25D1294B9846294BE9
:102AF0001C68002C15D0002F20D1274F02E024693C
:102B0000002C0ED02368002BF9D03B68002B01D09D
:102B1000A342F4D120002A003100C0472469002CD0
:102B2000F0D1019B002B27D105B0F0BCBB46B246CB
:102B3000A946A046F0BD194B9846D8E7164B9946D2
:102B400002ABDF1D0A239B4602E02469002CE8D07B
:102B50002368002BF9D04B461B68002B01D0A34201
:102B6000F3D12A0031002000C0475B460122390022
:102B700020003B70C047E8E7504602F045FFD3E72E
:102B80000122074B5242A2E740420F00A817002043
:102B9000F5290010142000201C200020E529001039
:102BA000FFFFFF7FF0B5CE46474680B583B06B464A
:102BB0000600DD1D2870FFF717F800231A4A1218C7
:102BC0004B41002B2BDB19490800884602F044FFDB
:102BD000174B81461C68002C14D0164F02E0246964
:102BE000002C0FD02368002BF9D03B68002B01D0BC
:102BF000A342F4D1200001222900FFF7FBFE246943
:102C0000002CEFD14B46002B05D1300003B0C0BCE7
:102C1000B946B046F0BD404602F0F6FEF5E70122A7
:102C2000054B5242CFE7C04640420F00A817002094
:102C3000142000201C200020FFFFFF7F70B504003F
:102C400002F070FD00230100050001222000FFF7C3
:102C50002BFF084B1C68002C06D06368002B05D0A6
:102C600098472469002CF8D1280070BD2469002CF5
:102C7000F3D1F9E7142000200A4A1368002B05D18C
:102C80000CE01A001B691032002B07D09842F8D1D3
:102C9000002902D103691360016170470029FCD04B
:102CA0001060FAE71420002010B500F0D9F910BD2B
:102CB0007047C0460022014B1A707047AE260020B4
:102CC0004B790020FF2B0BD18B79002B08D1CB79CE
:102CD000012B05D1082A03D98A78024B09301A70D2
:102CE0007047C046AE2600200120704770B501290C
:102CF00009D115495379107909781B020343002043
:102D0000994202D070BD0120FCE75378012B08D016
:102D1000022BF7D1002064220021FFF7EDFB0120F8
:102D2000F0E79478D278050012021443D20502D558
:102D3000620A93401D000548FFF71CFD7F21030038
:102D4000214028009847C046AE260020554200008A
:102D50000123037000487047185E001048780B7814
:102D60008A7800021843120410439622CB7810B5DB
:102D70001B060343D200934200D010BD0348FFF767
:102D8000F9FC0021030008009847C04655420000A6
:102D9000024B1860024B19607047C046781F002034
:102DA0007C1F002010B5024B1878FEF76BF810BDA1
:102DB000AF260020114B70B51A68002A1AD0EFF325
:102DC000108172B610680028FCD0BFF35F8F00221C
:102DD0000B48596002701B68BFF35F8F1A6081F364
:102DE000108800240025074B1878FEF74BF82900BF
:102DF000200070BDFA240025A400F4E73024002050
:102E0000B0260020AF26002070B5040000200E0080
:102E100001F002FB002835D0002001F015FB00284E
:102E200030D0FEF7E1FE0023184A12184B41002B68
:102E300024DB174D280002F00FFE002822D00020CE
:102E400001F0EAFA00280BD10120002103244042BE
:102E500000F0CCFC6442280002F0D6FD200070BDDA
:102E6000002001F0F1FA0028EED02100320000200D
:102E700001F0F6FA041EEED1033CECE70122054B0B
:102E80005242D6E703246442E8E7C04640420F00BE
:102E900080260020FFFFFF7FF8B5DE46574680B54D
:102EA00005000C00FEF7A0FE0023364A12184B4125
:102EB000002B5ADB344908008A4602F0CDFD002879
:102EC00003D1C0BCBB46B246F8BD002001F0A4FA55
:102ED00000284ED00026002C43DD2C4B9B4614E0EE
:102EE000A919002001F030FB070001200021404219
:102EF00000F07CFC002001F0EBFAFEF775FE234B9E
:102F0000F61918605960B4422BDD002001F036FB41
:102F1000A71B0200B84200DD3A00002AE0D10120E0
:102F20000021404200F062FC002001F0D1FA0020B4
:102F300001F072FA002814D0002001F01FFB0028D5
:102F4000E1D1FEF751FE5B460F001A685B68002175
:102F500084460F4812184B419F4202D8D3D1944562
:102F6000D1D9504602F050FDABE70122094B524245
:102F7000A0E700200021054B18605960504602F080
:102F800043FD9EE740420F0080260020C818002025
:102F900020A10700FFFFFF7F10B5244C84B0002163
:102FA000200002F049FD00281CD1214B1A68002A9C
:102FB00016D0EFF3108172B610680028FCD0BFF372
:102FC0005F8F01241B48596002781B68D2B20470DD
:102FD000BFF35F8F0020186081F31088002A0AD0A9
:102FE00004B010BD01200021404200F0FFFB200092
:102FF00002F00AFDF4E7FEF7E5FB0400FEF7F4FD3E
:10300000FA220023920012184B41002B09DB012108
:10301000029100210191084920000091FEF7D6FBA2
:10302000DEE70122054B5242F1E7C0468026002030
:1030300030240020B0260020B52D0010FFFFFF7FB8
:10304000054B10B51868002804D0044B00221968FD
:1030500001F044F810BDC046781F00207C1F0020FE
:10306000D02310B51B0684B01C68FEF7ABFBFEF73F
:1030700069FCA04202D0002004B010BD264B1B7892
:1030800001F066FC2548FEF7A1F90120FEF782F960
:10309000FF23234C234920701840FDF719FF2078A7
:1030A0000121FDF7DDFE0520FDF7F4FE002822D109
:1030B000FEF788FB0400FEF797FDFA22002392003A
:1030C00012184B41002B22DB0121029100210191BA
:1030D000154920000091FEF779FB08220400002129
:1030E0001248FFF773FC002CC5DB11480121FFF7E4
:1030F000C3FD0120C0E700220E490520FDF712FFA5
:10310000FDF792FE01000948FEF78CF9EDE7012278
:10311000094B5242D8E7C04630610010802600209B
:10312000AF260020992F0010B52D0010302400206C
:10313000200F0020A52D0010FFFFFF7F00487047E3
:10314000D05E0010004870477C5E001070B504002F
:1031500017480378002B21D0002C06D1C124154834
:10316000154BA4004380048070BD052C1DD8134B63
:103170001048A400E558811C002304E001330A80B4
:103180000231132B0ED0EA5CDCB2002AF6D1C02348
:103190000134E4B264009B001C43E4E7112100F019
:1031A00017F8D9E7CA24A400DDE70020DCE7C04611
:1031B00098260020EC1F002009040000E45E0010A7
:1031C00010B5024800F0D8F810BDC04648240020D1
:1031D00030B54B1E012900D1A7E0664A11780D11C8
:1031E0002C0030349F2900D9A2E00470012B00D1BB
:1031F000BEE00F21147821400C003034092900DD95
:1032000098E04470022B00D1B2E0547825112900D7
:1032100030319F2C00D990E08170032B00D1A7E0C2
:103220000F2121400C003034092900DD87E0C470F3
:10323000042B00D19CE094782511290030319F2C7B
:1032400000D97FE00171052B00D191E00F212140D1
:103250000C003034092900DD76E04471062B00D1E2
:1032600086E0D4782511290030319F2C00D96EE0FA
:103270008171072B00D17BE00F2121400C003034FD
:10328000092966DCC471082B00D171E0147925117D
:10329000290030319F2C5FD80172092B68D00F2193
:1032A00021400C003034092958DC44720A2B5FD0CD
:1032B00054792511290030319F2C52D881720B2B63
:1032C00056D00F2121400C00303409294BDCC47248
:1032D0000C2B4DD094792511290030319F2C00D929
:1032E000073101730D2B43D00F2121400C003034E6
:1032F000092901DD37310C0044730E2B38D0D17908
:103300000C11220030329F2900D9073282730F2B13
:103310002ED00F220A4011003731092A01DC303249
:103320001100C173102B23D010300023037030BD67
:1033300007345AE737310C0063E707316CE7373160
:103340000C0074E707317DE737310C0085E7073162
:103350008EE737310C0095E707319DE737310C00D8
:10336000A3E70731AAE737310C00C4720C2BB1D1A7
:10337000C018DAE74824002030B5002589B00400E1
:103380000922002101A80095FFF720FB0922002156
:1033900005A80495FFF71AFB4B236A46684613708D
:1033A00004A90D2202F028FB1521082220006944FF
:1033B000FFF712FB09B030BD10B501210520FDF764
:1033C0004FFD10BD10B500220021024800F05AF94F
:1033D00010BDC046442000208022024B5202DA6415
:1033E0007047C04600201150F0B5C64600B5060033
:1033F00000F022F90C231B4DFF22AB6705201A4970
:10340000FDF790FD40239846184C402200212000F3
:10341000FFF7DCFA43460127238321210023144AC6
:103420006770A260136063545F31618441462187F5
:10343000053963540F4A10496360E260A1620B6072
:103440006362E26202F0D0FA80239B052F64EB6492
:1034500090230A4A3000EA50FFF7BEFF80BCB8460E
:10346000F0BDC04600001150F904002024200020C7
:1034700084001050000110508000105010D0010046
:103480000B785B0602D14B78052B00D070478A7809
:10349000014B1A60FAE7C04600001150F0B5C6466D
:1034A00000B54B790C791B0288782343CC787F21B7
:1034B000A4070140C509A20F4F001400324E7A192B
:1034C0005201B218907001206840507000205B05D6
:1034D0005B0DD0701383D4768046CA00012D33D0A3
:1034E0002A488446880162448446B4446046826027
:1034F00040461060002933D0254AC90090466246F4
:10350000414451603F223F339343022C00D15B0082
:1035100020487A1901685201B218D1601E4ACB18AE
:10352000036051405340802288465201934228D87C
:103530004346A4061C4380237F197F011B06F6190E
:103540001C4373681C6011E014488446880162447F
:103550008446B4446046826240461060002909D126
:1035600000236D01761973600D4BF360012080BC60
:10357000B846F0BD084AC9009046624641445162CF
:10358000C0E7FFF7C9F8D3E72420002084001050DB
:10359000040010502C240020000010508000105017
:1035A0000001105010B502F01FFA10BD10B57F20B9
:1035B0000C0020404000E409110000191A00034BE0
:1035C0004001C01800F05EF8012010BD242000204A
:1035D0007F22130010B50B400A420BD0C90980228C
:1035E000580040180649400140181201002102F01D
:1035F0004BFA10BD02220348C909521A8266EEE74F
:1036000024200020002011507F22100010B5084017
:103610000A4200D110BD0023C909400040180449E6
:103620004001081800220349C37002F02DFAF1E7A7
:1036300024200020FFF7FFFF80220D4B520410B51D
:103640001A600C4B0C491A6010008B689843FBD130
:103650000A4C9C2200212000FFF7B8F980220021AB
:1036600052010748FFF7B2F90923636710BDC0464E
:1036700000E0004000F0004000C000400000115099
:103680000000105070B5837E04000D001600002B62
:1036900017D10023E38201332000A682A37625619F
:1036A00002F0FAF9002804D080219023084A890208
:1036B000D150200002F0B0F9002805D00123237773
:1036C00070BD02F0D9F9E4E7200002F0CDF9F7E788
:1036D00000201150024B5878431E9841C0B27047E9
:1036E0004C1D0020024B18784007C00F7047C046A1
:1036F0004C1D0020034B1878FF38431E9841C0B280
:103700007047C0465C0F0020F8B5CE46474680B5EE
:103710002C4E050033780120FF2B03D0C0BCB946E6
:10372000B046F8BD532200212748FFF74FF9274C38
:103730002000FDF74BFE264B1C60264C2000143069
:10374000FDF760FE200001F0D1FB234B234F1C60EE
:10375000234B9846002B04D03800FFF7F9FA214B91
:103760001860424600243B78002A23D01E4A904627
:103770001C4A9146A34212D80FD1434698470134C0
:103780003B78E4B2A342F5D228003570FFF72CFE57
:103790002800FFF711FE0120C0E70020BEE74A46DF
:1037A0001268630094461B19DB006344002BF4D0BD
:1037B0001B68E3E700F0EEFE3B780020002BADD164
:1037C000E2E7C0465C0F00204C1D0020041D0020D5
:1037D000A01D0020400F0020A41D0020A9260020CD
:1037E000512D0010241A002095450010F0B5DE463A
:1037F00057464E464546E0B58BB001F0AFF800287D
:1038000000D10FE1C74BC84D9946C84B07AC9B464A
:103810002E687269EFF3108172B61368002BFCD02A
:10382000BFF35F8FB1613000210001F0A1F972692F
:10383000B369BFF35F8F0021116083F31088002804
:1038400000D1EFE06378082BE2D84A469B00D358BA
:103850009F466368002BDBD0A0689847D8E77F229B
:103860002179B24E0A405000CB093618F6183000C4
:1038700001273030C378BB43C370C3780337BB43E1
:10388000C370002A00D1F2E0A94AF37C002A06D0D6
:10389000A84A1278934200D260E19B1ADBB2002B57
:1038A00000D0BFE0A44E62792078A368B047AFE7AC
:1038B0005B4601221B78012113435A4613703323C0
:1038C0005846D25C5E468A43C254C25C042082439E
:1038D000F2540133F25C8A43F254F25C8243F254B4
:1038E000237800209A4600F005FD602223791A40D3
:1038F000602A0DD0402A00D1BFE0DB06DB0E012B91
:1039000000D136E1022B00D1D4E0002B00D1C3E07E
:1039100020780021FFF75CFE80212078FFF758FE19
:1039200076E7824E3378DB0700D471E7834B002BB8
:1039300000D16DE700E000BF6AE77C4E3378DB071B
:1039400000D465E77E4B002B00D161E7307800079B
:10395000C00F00E000BF5BE7764B754A9846002633
:1039600027781B78002A00D179E0764A92469E4259
:103970005FD319D1744B38009847434601361B7802
:10398000F6B2B342F3D2694E532200213000FFF762
:103990001DF81022FF21F01CFFF718F8300020223C
:1039A000FF211330FFF712F800F09AFC674B002B51
:1039B00000D12DE700E000BF2AE75E4B5C4A984645
:1039C000002627781B78002A1FD05E4A92469E4226
:1039D0003AD321D15C4B38009847434601361B78D7
:1039E000F6B2B342F3D2514E532200213000FEF71B
:1039F000EDFF1022FF21F01CFEF7E8FF300020222F
:103A0000FF211330FEF7E2FF07E0380000F000FE70
:103A100043461B78002BE6D0444E00F061FC23792E
:103A2000B370F5E60BB0F0BCBB46B246A946A04663
:103A3000F0BD52461268730094469B19DB00634444
:103A4000002BB1D05B6896E752461268730094462B
:103A50009B19DB006344002BDED05B68BBE73800BA
:103A600000F0D6FD43461B78002B9DD18BE7627991
:103A70002078A36800F052FCCAE63548002800D13F
:103A800046E700F037FC0121504608AA00E000BFDD
:103A9000002800D0BCE63BE7202A00D19EE0002AA7
:103AA00000D035E76379092B00D931E7294A9B001B
:103AB000D3589F467023217A0B4200D028E75846FE
:103AC0000F330B405B00CE09C018194F8019C07C22
:103AD000002F06D0174F3F78B84200D2A0E0C01B9D
:103AE000C0B2002800D096E0002A00D047E11A4F6B
:103AF0000220627990468243012A00D142E1424687
:103B0000002A00D004E75B449E193036F37806AAF9
:103B10009B07DB0F023213805046022308A900F0F6
:103B200081FB75E6645F0010A41D00204C1D002081
:103B3000512D0010A92600200948001000000000A7
:103B400000000000241A00201146001000000000B0
:103B500000000000885F0010F05F00105A00D318CA
:103B6000B14ADB001268D318002B00D15AE71E6956
:103B700099E6237A0F2B00D9CAE6AC4A5B44DB787E
:103B8000002A05D0AA4A127893425ED39B1ADBB270
:103B9000002B00D0BCE6A748A74E00F0ABFB0121EC
:103BA0005046F36808AA9847002800D030E6602203
:103BB000160023791E401A4200D0A9E663790A3B19
:103BC000012B00D9A4E600F095FB63790A2B00D104
:103BD00020E1504608A900F00DFB19E6237A0F2BCF
:103BE00000D995E6914A5B44DB78002A06D0904ADA
:103BF0001278934200D2E6E09B1ADBB2002B00D091
:103C000086E68C488C4E00F075FB01215046F36827
:103C100008AA98473CE70027002A00D168E777E622
:103C200047003818804FC0003F683F18002A00D175
:103C30005EE7002F00D16BE6F86800F05BFB012126
:103C40005046FB6808AA984722E7774A5E00F318B7
:103C50001668DB00F618002E00D159E6F0689CE7E4
:103C6000A279019273789A4207D07378002B00D022
:103C700046E1019B002B00D0EAE05B46019A5046EA
:103C800008A95A7000F0B6FAC2E5737806AA0232A3
:103C900013705046012308A900F0C4FAB8E5E08883
:103CA000030AC0B20F2B00D932E664499A008A5841
:103CB000974608A800F024FB5046A179FFF782FB45
:103CC0000222337813433370A2E5E388012B00D03E
:103CD0001EE60822337893435A46137079E7022090
:103CE000317806AB9A1C8B068908DB0F01400B4329
:103CF00011E7E388012B00D00AE60822337813434A
:103D0000EAE74F4B002B00D102E600E000BF021EA5
:103D100000D1FDE5D37891781B020B43504608A9EA
:103D200000F080FAB4E6474B002B00D1F0E500E04C
:103D300000BF021E00D1EBE55046137808A900F041
:103D400071FAA5E62189FFF701FA021EF4D1DFE539
:103D5000022B00D112E13C4B002B00D1D8E500E052
:103D600000BF0200002A00D1D2E5D3E7FFF7E6F951
:103D70001223020008A9504600F054FA88E62D48A4
:103D80002D4F5AE7E288002A08D142465B449E192B
:103D90003036F378012A21D09B072ED5002F00D191
:103DA00036E5F86800F0A6FAFB6808AA012150463B
:103DB0009847002000F09EFA34235A46D35CDB0774
:103DC00000D525E505E7184A5E00F3181668DB0004
:103DD000F618002E00D19BE5F06814E79B07DDD5AF
:103DE0001A4B1878FFF710FC0222F37893434246EF
:103DF000F370F3789343F370D0E7144B1878FFF720
:103E0000E7FB0222F37813430122F370F3781343A4
:103E1000F370C3E706AB9A1C5046012308A916703D
:103E200000F000FAF4E4C046241A0020512D0010DE
:103E3000A926002025470010F05F0010B05F001099
:103E40000000000000000000000000005C0F0020E7
:103E5000581EC0B2FFF776F9002800D158E5437824
:103E60000593022B00D053E50121C279070093117D
:103E700052110B400A4012015B0113435A4612785B
:103E80002F318A4313435A461370C37882781B023A
:103E90001343C31809370393039BBB4200D8ACE01C
:103EA00001227B7800920B2B03D1FB7800933B78A7
:103EB000FF187B78042B00D02AE50026039B584A84
:103EC000DB1B9BB20293574B04931B78B24263D027
:103ED000B846B34256D800D01AE5534B534F41462B
:103EE0005046029A9847082803D9029A824200D382
:103EF0008AE0049B01361B78F6B2B342E9D207E5AB
:103F00005046FFF74FFBB378454A0093454B0026D8
:103F100098461B78002A0DD0454FB34225D820D1B2
:103F2000444B50469847434601361B78F6B2B3429D
:103F3000F3D206E0504600F06BFB43461B78002BA3
:103F40000FD1532200215846FEF740FD5B46102258
:103F5000FF21D81CFEF73AFD2022FF213648FEF74C
:103F600035FD5B46009A9A7083E618233A687343DE
:103F700094466344002BF4D05B68D2E7FFF7E2F885
:103F80000200EFE62A4B1F6818237343FF18002F27
:103F900000D1BDE4BB68A2E7029B39001A0050467D
:103FA000984600F04BFB082800D8B1E44246824214
:103FB00000D2ADE41D4B9846009B012B28D0002277
:103FC0000AE0BB78D318DBB25B44D978FF2900D074
:103FD0009EE40132DE70D2B2009B9A42F1D180465B
:103FE000330002003900144800F03CFD049B4744B4
:103FF0001B78B34200D34FE78AE4104B002B00D16B
:104000003BE600E000BF38E63B0047469846D3E772
:104010004246054B92689A42D1D1059B0093CEE768
:10402000512D0010A92600203D460010F05F001021
:10403000241A0020114600105F1D0020000000001F
:10404000F8B557464E46DE4645460C00E0B516002C
:104050001F00002A3CD0702398461E4B00259B462B
:104060001D4B9A461AE05B461B7820009946534642
:10407000997800F0BBFC00281CD021004846FFF7CF
:104080000DFA002816D0A378DA09012A19D00A9A65
:10409000013513702378E418B54219DA6378052BDB
:1040A00008D1E3789B079B0FBB4203D14246A3781C
:1040B0001A42D8D00020F0BCBB46B246A946A04662
:1040C000F8BD0B9A013513702378E418B542E5DB8F
:1040D0000120F0E75C0F00204C1D0020802310B56C
:1040E0001B0184B001930E4B02901C68039162691E
:1040F000EFF3108372B611680029FCD0BFF35F8F15
:10410000A361200001A900F0F9FD6269A369BFF372
:104110005F8F0021116083F3108804B010BDC0468A
:10412000A41D0020702270B58B780C001A4201D0BB
:10413000002070BD064B20001D78064B997800F0DA
:1041400055FC0028F4D021002800FFF7A7F9F0E77C
:104150005C0F00204C1D0020074B080019687F23CE
:1041600010B50340C0095B0033301818034B181812
:1041700000F0F8FB10BDC046A01D00204C1D002023
:10418000074B080019687F2310B50340C0095B0086
:1041900033301818034B181800F00CFC10BDC04643
:1041A000A01D00204C1D00207F2070B508400F4C42
:1041B0004000CD09241864193034E5780020ED075B
:1041C00000D570BD0126E578094835430078E570D3
:1041D000FFF7ECF90028F4D10122E3789343E37070
:1041E000E37803329343E370EBE7C0464C1D0020B5
:1041F0005C0F002070B50A4E0500300008220C004C
:10420000FEF7EAFB00237F21F3602278B36091423E
:104210005B412800D90100220023FFF7C5FF70BDD4
:10422000F01C0020F8B5CE46474691462A4E80B590
:104230000822070030000D009846FEF7CDFB4B46E4
:10424000B3600023F381EC79A97924020C43231C89
:10425000444500D943469AB29046B381002C13D00E
:10426000002A1FD04B46002B34D0131C402A1FD8E5
:104270009BB2984633787F2B20D80021174A4346BB
:104280003800FFF791FF09E07F222B7838009A422F
:10429000644100230022E101FFF786FFC0BCB9465C
:1042A000B046F8BD33787F2B11D980210022E6E794
:1042B00040239BB2984633787F2BDED9074C424689
:1042C00049462000FEF788FB80212200D7E7002125
:1042D0000022D4E70020E1E7F01C00200C1D0020A4
:1042E00010B5142200210248FEF770FB10BDC04635
:1042F000F01C0020014B18617047C046F01C0020E4
:1043000010B5054C010008222000FEF765FB0023D4
:10431000A360E36010BDC046F01C0020F8B53B4C24
:104320001D0023780600DA09C9098A4213D000204B
:10433000002D00D0F8BD364B002B03D021003000FB
:10434000FFF79EF82369002B44D0220003213000A0
:1043500098470120EEE77F2B06D8A068002837D0C9
:104360002A002C49FEF738FBA368E2895919521933
:10437000E38892B2E281A160934214D03F2D12D91A
:10438000A589A81A071C80B240282FD82378BFB26D
:104390007F2B2DD80021AA4235D01E4A3B00300089
:1043A000FFF702FFC6E72369002B05D02200022198
:1043B0003000984700280FD07F220021237830005A
:1043C0009A42494100230022C901FFF7EDFEB1E7FF
:1043D0000020AFE70120ADE700213000FFF7F8F83B
:1043E00030008021FFF7F4F80120A3E74027CDE754
:1043F000AA4207D0074C3A002000FEF7EDFA8021D0
:104400002200CBE780210022C8E7C046F01C002034
:10441000813400100C1D002010B50400FFF75AF97C
:10442000002801D1002010BDFFF75CF90028F9D168
:10443000B22080004443034800190379012018404A
:10444000F1E7C046281A0020B2239B00584310B55C
:10445000024B1030C01800F057FB10BD281A002086
:10446000F0B5B225AD0045432C00C646174F1034B9
:10447000E41900B5200092B200F0CAFB060020004B
:1044800000F060FB3F2803D8300080BCB846F0BD88
:104490007B190020D9789846FFF75EFE0028F3D0FC
:1044A000200000F04FFB3F280AD992239B00EA1816
:1044B0004346D219D97800204023FFF775FEE3E781
:1044C00043460020D978FFF75BFEDDE7281A00207D
:1044D000F8B50400FFF7FEF8002801D10020F8BD70
:1044E000FFF700F90028F9D1B220800044432500ED
:1044F000144E2435AD19280000F006FB0028EDD03D
:1045000037190020B978FFF727FE0028E6D0A2234C
:104510009B009C466444A41921002800402200F01E
:1045200077FBB978051E08D0030022000020FFF7B2
:104530003BFE0028D2D02800D1E70020FFF720FE64
:10454000CCE7C046281A002070B5B224A40044432A
:10455000094B2434E418050092B2200000F012FC4C
:104560000600200000F0D0FA3F2801D8300070BDCE
:104570002800FFF7ADFFF9E7281A0020B2239B00BF
:10458000584310B5024B2430C01800F0DBFA10BDC0
:10459000281A0020B222F0B51B4C83B00021200065
:1045A0009200FEF713FAFF236371184B8026002553
:1045B000E3800127082321002000760023733200C6
:1045C000278138310095073B103000F065FA210053
:1045D000200039313200FF3101230097243000F0F0
:1045E0005BFA8E239B00E6183000FCF7EFFE902369
:1045F0009B002662E6183000E561FCF7E7FE2663C3
:10460000656303B0F0BDC046281A002000C2FFFF5A
:1046100010B5094C052200212000FEF7D7F9200033
:104620002434103000F062FC200000F05FFC012117
:10463000200000F07BFC10BD281A0020F0B54B795B
:10464000060083B0022B02D18B79022B03D0002508
:10465000280003B0F0BD304FBB78002BF7D18B782A
:1046600009253B700C780C196378242B0BD1082A90
:1046700002D80FE0AA420DD32378E418ED1863782E
:10468000ADB2242BF6D0052B21D0042B02D16379B7
:104690000A2B2FD0214C200000F054FA3F28D7D904
:1046A0002600103E0020F178FFF756FD0028CFD0FD
:1046B000200000F047FA3F2817D98E239B00E2180C
:1046C000F93BF178FF3B0020FFF76EFDC0E72100CA
:1046D0003000FFF727FD0028B9D0A3787B7023783E
:1046E000ED18E4186378ADB2CFE7F1780020FFF75A
:1046F00047FDADE70A4B277801930133009302226F
:1047000002233000E119FFF79BFC00289FD00E35F3
:10471000ED19ADB2BEE7C046281A0020381A0020B5
:104720002A1A0020F8B560231400127805001340FF
:104730000020202B12D12F4A6379277916781B028B
:104740003B439E420AD16378222B27D007D8202BE7
:1047500017D0212B02D101293DD00120F8BD232BF8
:10476000FCD101293FD00329F7D1234B002BF4D0F2
:10477000E178A37809020020194300E000BF01207E
:10478000ECE7012927D00329E7D11C4B002BE4D00B
:104790000020911DFEF7E2FA0120DFE7012922D077
:1047A0000329DAD101252E00A378E4780239240206
:1047B0001C431471264024321000714000F0B6FBF7
:1047C0000F4B002BC9D06208002031002A4000E0C6
:1047D00000BF0120C2E7072321002800094AFFF794
:1047E00021FD0120BAE721002800FFF703FD012089
:1047F000B4E7C046281A0020000000005D2D00101C
:10480000000000002E1A0020F8B557464E464546D7
:10481000DE46E0B5494F8046FA780C001E008A4219
:1048200064D19AB292239B00FD1810239B46BB448F
:104830002900584600F0A6FA414BD946002B18D063
:104840007B79D946FF2B14D0002E12D0AA1992469C
:1048500003E0013555450CD07B792A789A42F8D18E
:10486000484600F067F90028F3D1797900E000BFED
:10487000EFE7344B002B04D0484600F05BF90028EA
:1048800052D0484600F05EF93F2834D84A46103AE4
:104890009378A34207D001242000F0BCBB46B24667
:1048A000A946A046F8BD284B002B02D0002000E00E
:1048B00000BF0020FFF70CFE0028ECD1234D28009C
:1048C00000F022F90028E6D1002EE4D0B306E2D1B0
:1048D000243D4046A978FFF73FFC041EDBD00023AF
:1048E00000224046A978FFF75FFCD5E7BB788B42F2
:1048F000D9D00024D0E74D46103D0020E978FFF7DD
:104900002BFC002801D1AB78C3E7484600F01AF928
:104910003F280CD98E22920040230020E9784A4497
:10492000FFF742FCAB78B4E7FEF78AFBA9E700206B
:10493000E978FFF725FCAB78ABE7C046281A0020E2
:104940000000000041300010000000004C1A002060
:1049500010B50020FEF7D8FE10BDC04610B5FEF71A
:10496000C9FE10BD037870B5DB0704000E00DD0F33
:10497000002B17D103785B0701D5280070BD0121FA
:104980003000494201F060F82378DB07DD0F002B8F
:104990000AD123785B0708D4042223780125134326
:1049A000237002E00025E8E70025300001F02CF834
:1049B000E3E7C04670B50D0001210400494228001C
:1049C00001F042F823785B07DE0F002B04DB2800A0
:1049D00001F01AF8300070BD2378DB0704D40422FC
:1049E000237893432370F2E70026F0E710B543796C
:1049F00004791B0223435B055A0DC3789B079B0F69
:104A0000022B05D0032B15D00020012B08D010BDA0
:104A100002291CD00020402393424041C0B2F6E757
:104A200002394B4259410D4B9C46614491424041F1
:104A3000C0B2ECE702394B425941F0230020494211
:104A40009B001940403191424041C0B2DFE7044B26
:104A5000D3185A425341D8B2D9E7C046FF030000E9
:104A600000FEFFFF8A1870B5914207D27F264C786E
:104A7000052C04D00C7809198A42F8D870BD34008E
:104A80008D782C4064000419ED0963550C780919E0
:104A90008A42ECD8F2E7C046F0B5C64600B504003D
:104AA00006A805788020884617001E000002824272
:104AB00027D8E068002803D00121494200F0C4FF54
:104AC0002069002803D00121494200F0BDFF434680
:104AD000236073045B0CED031D430023E0686381D6
:104AE000A780E5802381002801D000F08DFF206998
:104AF0000124002801D000F087FF200080BCB846C8
:104B0000F0BD0024F9E7C04610B5048941898288C8
:104B1000A3B288B28C4207D31B1A9BB2101C9A42D4
:104B200000D9181C80B210BD5100091A5B189BB245
:104B3000F4E7C046030000895B89C01A434258412C
:104B4000C0B2704710B5048941898288A3B288B287
:104B50008C4207D31B1A9BB200209A4201D9D31A68
:104B600098B210BD5100091A5B189BB2F4E7C04619
:104B700070B5040000690E00002803D001214942ED
:104B800000F062FF25896089A288A9B283B28542BC
:104B90002CD3CD1AADB2002D2ED0AA4208D291420C
:104BA00031D38B1A9BB263819A4203D89B1A9BB272
:104BB0009A42FBD9E28821685204520C53433000D8
:104BC000C918FDF709FF618901254B1C9BB2A2881A
:104BD000994214D9002352009B1A9BB22069638129
:104BE000002801D000F010FF280070BD5500ED1A1C
:104BF0004D19ADB2002DD0D1002563899BB2520072
:104C00009342EBDBE8E789188BB26381CCE7C046BF
:104C1000F0B546464F46D646C0B5060000698946FF
:104C20009046002803D00121494200F00DFF318950
:104C30007289B5888BB294B2914257D31F1BBFB211
:104C4000002F4DD0BD4205D2AB4254D25B199CB26D
:104C50002F0074814346B84540D89FB2A54203D87F
:104C6000641BA4B2A542FBD9F288281B5204530C42
:104C700019009846336861439C4680B2614487427C
:104C800026D94346584383B21A0048469A46FDF750
:104C9000A3FE434648467D1B64195C43316850447B
:104CA000A2B2FDF799FE7189B588CB199BB26A0053
:104CB000994217D99B1A9BB230697381002801D0A1
:104CC00000F0A2FE3800E0BCBA46B146A846F0BDEE
:104CD000424648467A43FDF77FFEE4E73B1CBCE7CB
:104CE00073899BB26A009342E6DBE3E76F003F1BE8
:104CF000DF19BFB2A4E75B1B9CB2A9E7F8B50400BB
:104D0000C0680E00002803D00121494200F09CFE3B
:104D1000258920896189A288ADB283B28FB2884289
:104D200028D3DB1B9BB29A4209D8E779FF0906D149
:104D3000E068002801D000F067FE3800F8BD2B00C5
:104D4000954203D39B1A9BB29342FBD2E28821681F
:104D50005204520C5343C8183100FDF73DFEA2889F
:104D60006B1C9BB252009D4209D99B1A9BB2012732
:104D70002381DDE75100C91B5B189BB2D3E7934247
:104D8000F5DBF2E7F0B54E464546DE465746E0B560
:104D900089460500140083B0002A6ED0C068002840
:104DA00003D00121494200F04FFE2F89EA796B8937
:104DB000BFB29BB2D20942D1AE889F4267D2720085
:104DC000D31AFB189BB2002290469E4231D9F31AA7
:104DD0001A1C9BB2A34200D9221C93B29846E888C1
:104DE0004346FB189BB29B463C00B74203D3A41B2F
:104DF000A4B2B442FBD24004430C18009A462B687C
:104E000060439C46311B89B2604441454ED35246B3
:104E1000434649465A43FDF7DFFDAB885B00BB457F
:104E200001D39B4503DB5A46D31A9BB29B465B4694
:104E30002B81E868002822D000F0E6FD1FE0AA8858
:104E40009046944226D29F4244D34146FA1A92B2E7
:104E5000490012198A4209DB42469A1892B2171B7E
:104E6000BFB29346BB423AD97F1ABFB2E3199BB295
:104E700046469B46A046E888B6E70023984640464B
:104E800003B0F0BCBB46B246A946A046F0BDFB1A33
:104E90009BB298E7E888A21A4404640C5443424643
:104EA000A144002AC5D046461F0099E753465943FE
:104EB00089B20A0001914946FDF78EFD43469A1BCF
:104EC0005346A2185A430199286892B24944FDF703
:104ED00083FDA2E75100CA1ABA1892B2B9E7B942E3
:104EE000C2DD4646E888A0467EE7C04610B504000D
:104EF000C068002803D00121494200F0A5FD2069C7
:104F0000002803D00121494200F09EFD0023E06803
:104F100063812381002801D000F076FD20690028FC
:104F200001D000F071FD012010BDC04670B5040035
:104F3000C0680D00002803D00121494200F084FD23
:104F40002069002803D00121494200F07DFD7F2126
:104F5000E379ED011940E0682943E171002801D0AF
:104F600000F052FD2069002801D000F04DFD012025
:104F700070BDC046F8B5DE4657464E4645468346A8
:104F8000E0B505200C00FDF759FA06006008210085
:104F90008019FDF721FC4300984680440700052155
:104FA0004046FDF719FC3B1A9A46204B814670009B
:104FB00080199C4234D81E49FDF70EFC451C5B4607
:104FC0001C680023E36622680433534006221A401B
:104FD00080235B0123431A605346E3614B462362FF
:104FE000434601204F2B03D950214046FDF7F4FBE7
:104FF000A0232200E0508023E06F7C3245402D0446
:105000005B0113432D0C1D60012339003000E36662
:10501000FDF7E2FBF0BCBB46B246A946A046F8BD90
:105020000449FDF7D9FB451CC9E7C0463F420F00C4
:105030008096980040787D01104A70B5821A5342DC
:105040005A41072352429A430D4B10321A600D4BBE
:105050000D4C1A601500A3689D432B1EFAD16624DF
:105060000268FF340571D5661460633C8833FF3CE9
:10507000D5639563D450FFF77DFF70BD600F0020AE
:1050800000E0004000F0004000C00040F0B557468E
:105090004E464546DE4690460022E0B583B01E00EF
:1050A0000CAB1B7884469A460368DA660132596075
:1050B000DA66002E4FDD51464A40520201928022AC
:1050C000914632008025771E0020464610219046EA
:1050D000AD000024002804D162461479621E944178
:1050E000A40200229346B8421AD0325C22435C46A6
:1050F00022431A615A6B1142FCD04A469C58002C3C
:1051000011D1B84222D001308045E2D163465246E7
:105110001A7103B0F0BCBB46B246A946A046F0BD2A
:10512000019A9346E1E75A6D012293465A6B2A424F
:10513000FCD01A6E5A46002AE5D0002C03D0E307B3
:1051400001D42307E2D402204042DFE75246002A7E
:10515000D9D1D346EAE70020D8E7C04610B5034BC3
:105160000100186800F00EF810BDC046680F00205E
:1051700010B5034B0100186800F050FB10BDC0468D
:10518000680F0020F0B54E464546DE465746E0B56E
:105190000D000B35060083B0162D22D8102900D93A
:1051A000B2E000F0A9FA102518230220CC4FFB181A
:1051B0001A005C68083A944200D1B5E003236268A3
:1051C0009A431300E268A168CA6091600122E31863
:1051D000596830000A435A6000F090FA2000083005
:1051E00095E007239D4300D58EE0A94200D98BE0CE
:1051F00000F082FAFC235B009D4200D2A1E1680A24
:1052000000D18BE0042800D974E138239846A8091E
:1052100080443930C100B24F79184C680839A14236
:105220000ED003239C4604E0002ACBDAE468A142B6
:1052300006D06246636893435A1B0F2AF4DD40464A
:105240003A003C690832944200D178E00323616857
:10525000994389460B00491B0F2900DD75E17A61EE
:105260003A610029B2DA80229200914500D310E120
:105270005909DA0801238B40D2007968D2190B430F
:1052800091687B60E260A1609460CC600121821033
:105290009140994259D80B4205D1032290434900CD
:1052A00004300B42FBD003239846C3009946B9440F
:1052B000CC4682466346DC68A44507D126E1002A35
:1052C00000DB2FE1E468A44500D11FE1424663689A
:1052D00093435A1B0F2AF2DD0120804661190543D2
:1052E0006560A068E5680837C560A860404610435F
:1052F000F960B9604860CF6030008F60E25000F024
:10530000FDF92000083002E00C230020336003B0D8
:10531000F0BCBB46B246A946A046F0BD80213F2363
:1053200040209846890076E7DC680230A34200D02E
:1053300044E73A003C690832944200D086E70121F4
:105340007B68821091409942A5D90323BC686268AA
:105350009A439146954203D8531B0F2B00DD8AE0F8
:1053600023004B445F4A01935F4B93469A46126871
:105370001B68EB18013200D136E15C4A9446634465
:105380001B0B1B0300933000009900F0B9F90300D8
:105390008046013300D1F3E0019B834200D9EDE068
:1053A00052460098526803009446514663444B604D
:1053B00001991A00414500D14BE15B461B6801335E
:1053C00000D150E1434601995B1A9A1853465A603E
:1053D0000723424641461A400192194200D10DE18D
:1053E00008239846881A424B0099804441449B1AEE
:1053F0005B1A1B051B0D0091300019009B4600F045
:105400007FF9431C00D14AE14346C01A03005B44C4
:105410000093534652465B6801215B445360424609
:105420004046BA60009A0A434260BC4200D11EE185
:105430004A460F2A00D81CE107200C3A82436068D4
:105440000140052011436160A118486088600F2A5F
:1054500000D92FE14246444652685146C96A9942F2
:1054600001D25146CB625146096B994200D389E083
:1054700051460B6386E0012229001343114365194D
:1054800061603000BD606B6000F038F920000830CA
:105490003DE75A0A042A6BD9142A00D9BEE011004C
:1054A0005C325B31D20008235B429C46BA189444BC
:1054B00063469A6803239846944500D197E0434693
:1054C00051689943494502D992689445F7D1D36808
:1054D0009C467B686146A260E1608C60D460D5E642
:1054E000A013002098130020EC1900200F100000DA
:1054F00008100000142852D9542800D996E06E23D1
:105500009846280B80446F30C10084E608239B46F0
:10551000073BDC449B46DA4443465246134200D0E4
:10552000C8E64CE00122E318596830000A435A608B
:10553000E368A268D3609A6000F0E0F820000830C9
:10554000E5E62B00E808083330E6012360191D4327
:10555000656078613861C26082601A004B460A4318
:1055600042603000E15000F0C9F820000830CEE67B
:105570009A09110039323831D20094E7BC4260D028
:10558000BC68626803239A43531B954202D80F2BD1
:1055900000DD70E7300000F0B1F80020B7E65B23D3
:1055A000984680445C30C10035E608235B429C4647
:1055B000E1444B469B6801384B4500D097E0434699
:1055C0000342F2D17B688B437B604900994200D94A
:1055D000BBE6002904D1B8E6042294464900E2441F
:1055E0000B42F9D0504660E610330093CBE68910A9
:1055F000023B8B4079680B437B606BE7009B30007C
:1056000043445B421B051B0D19009B4600F078F8D4
:10561000431C00D0F8E600239B46FAE6542A2AD819
:105620001A0B11006F326E31D2003CE7AA235B00E7
:1056300098422AD8DD3B9846E80B80447830C10078
:10564000E9E553465B68009A9C46534662445A60BB
:10565000B3E6090500D0B0E60200BC684A44013157
:105660000A436260F9E65B4642461A60B0E6444689
:10567000F3E641608EE7AA2149008A4224D8DA0B7A
:10568000110078327731D2000DE71A4B984224D8B6
:105690007C239846A80C80447D30C100BBE5009A6D
:1056A000019B94464246083B63449B1A00930023A7
:1056B0009B46AEE621003000083100F0AFF85346BB
:1056C000BC685B686268C8E60A498A420BD89A0CD3
:1056D00011007D327C31D200E5E6FE217E237F2061
:1056E0009846890097E5FE227E219200DBE67B68E2
:1056F0006BE7C046540500007047C0467047C0467F
:10570000002370B5064D040008002B60FCF7CEFFA7
:10571000431C00D070BD2B68002BFBD02360F9E741
:10572000201A002010B583070AD00300032102E0ED
:1057300001330B4205D01A78002AF9D1181A10BD8E
:10574000030019680C4A0D4C8A188A4322420FD173
:105750005968094A04338A188A43224208D1596891
:10576000054A04338A188A432242F1D000E001330B
:105770001A78002AFBD1E1E7FFFEFEFE80808080E0
:10578000F8B50C000500FFF7B7FF204FBB685E6857
:1057900003239E431E4B341B9C466444240B013C54
:1057A000113324039C4207DB00212800FFF7A8FFE8
:1057B000BB689B19984204D02800FFF79FFF002088
:1057C000F8BD28006142FFF79BFF431C0DD001226A
:1057D000BB68361B16435E600E4B28001A68141B0C
:1057E0001C60FFF78BFF0120EAE700212800FFF78C
:1057F00087FFBA68831A0F2BDEDD07490968401A54
:105800000449086001210B435360D5E7A013002031
:10581000EF0F0000F019002098130020F0B5C646E5
:1058200005000C0000B500294FD0FFF765FF2100EF
:1058300008394C68012622000320B2438F187B6888
:105840008343624898468368BB426AD043467B6084
:1058500026421ED108239C460C688444091B121959
:105860008C6864454FD0CB68E3609C604346FC186D
:105870006468344211D1BB68554C4244A34200D104
:105880007EE0FC68DC60A360012313434B608A5018
:1058900006E0FC1864683442EDD016434E603A606E
:1058A00080239B009A4213D25409D3080122A240BC
:1058B0004468DB002243426018188368C8608B602C
:1058C0008160D9602800FFF719FF80BCB846F0BDA1
:1058D000530A042B3ED89409260039343836E400A4
:1058E00004192368083C03279C4242D05868B843F7
:1058F000904202D99B689C42F8D1DC68CC608B60F6
:10590000A160D960DEE74346F8184068304257D1BD
:10591000FB68B86842441643C36098604E608A5082
:10592000D0E713004344264206D10A68891A8C68DE
:105930009B18CA68E260946001221A434A60254AB3
:10594000816012689A42BDD8234B28001968FFF77E
:1059500017FFB7E7142B07D9542B1AD8140B2600BE
:105960006F346E36E400BBE71E005C335B36DC0050
:10597000B6E70122B610B240466832434260BDE746
:10598000D9609960CB608B60012313434B608A50D0
:1059900098E7AA246400A34205D8D40B26007834E3
:1059A0007736E4009CE70D4CA34205D8940C260002
:1059B0007D347C36E40093E7FE247E26A4008FE746
:1059C000330013434B603A607CE7C046A0130020CD
:1059D000A81300209C130020EC190020540500009F
:1059E000F8B5C0460000000001B40248844601BC7E
:1059F000604700BF9503002001B40248844601BC03
:105A0000604700BFD102002001B40248844601BCB7
:105A1000604700BF3102002001B40248844601BC47
:105A2000604700BFF909002001B40248844601BC68
:105A3000604700BFA10D002001B40248844601BCAC
:105A4000604700BFC100002001B40248844601BC89
:105A5000604700BFA101002001B40248844601BC98
:105A6000604700BF0501002001B40248844601BC24
:105A7000604700BF750B002001B40248844601BC9A
:105A8000604700BF110B002001B40248844601BCEE
:105A9000604700BF1D0B002001B40248844601BCD2
:085AA000604700BFD10900209E
:105AA80041206C6F6E672074696D652061676F00B7
:105AB80020206F6E20616E204F4C4544200000006E
:105AC800202020646973706C61790000206661721F
