:020000041000EA
:1000000000B5324B212058609868022188439860DF
:10001000D860186158612E4B002199600221596106
:100020000121F02299502B49196001219960352056
:1000300000F044F80222904214D00621196600F024
:1000400034F8196E01211966002018661A6600F04E
:100050002CF8196E196E196E052000F02FF8012189
:100060000842F9D1002199601B49196000215960AB
:100070001A491B48016001219960EB211966A021F2
:10008000196600F012F800219960164914480160C1
:100090000121996001BC002800D000471248134993
:1000A000086003C880F30888084703B5996A0420EC
:1000B0000142FBD001200142F8D103BD02B5186610
:1000C0001866FFF7F2FF186E186E02BD00000240BE
:1000D000000000180000070000035F00212200005C
:1000E000F4000018222000A00001001008ED00E03C
:1000F00000000000000000000000000074B24E7A12
:1001000000200420F7010010C3010010C5010010F9
:10011000C1010010C1010010C1010010C101001097
:10012000C1010010C1010010C1010010C701001081
:10013000C1010010C1010010C9010010CB01001065
:10014000CD010010CD010010CD010010CD01001037
:10015000CD010010CD010010CD010010CD01001027
:10016000CD010010CD010010CD010010CD01001017
:10017000CD010010CD010010CD010010CD01001007
:10018000CD010010CD010010CD010010CD010010F7
:10019000CD010010CD010010CD010010CD010010E7
:1001A000CD010010CD010010CD010010CD010010D7
:1001B000CD010010CD010010CD010010CD010010C7
:1001C00000BE00BE00BE00BE00BE00BEEFF3058054
:1001D000103800BEF2EB8871803200109C320010A3
:1001E0003402001090A31AE700201F49086006C8D7
:1001F00081F3088810471D48006800282FD10DA4FE
:100200000ECC002902D000F012F8F9E71849194A7B
:10021000002000E001C19142FCD1174988471749ED
:1002200088471749884700BEFDE701C901C29A42C5
:10023000FBD370479C320010C0000020E00B002070
:10024000BC3D00100000042000000420BC3D001054
:10025000001004200010042000000000704709482E
:1002600001F054FD0047000008ED00E0000000D060
:10027000E00B0020FC100020451B0010ED050010D5
:100280006D1C00105756000006005250ABB360536F
:10029000D831001006005250861C0302E8310010CD
:1002A000060052505422A29DF83100100500525011
:1002B000DE65F468BC3D0010F8B5C0460448054B47
:1002C00010B5834203D0044B002B00D0984710BDDB
:1002D000E00B0020E00B002000000000064807496A
:1002E000091A8B10C90FC91810B5491003D0044B57
:1002F000002B00D0984710BDE00B0020E00B002041
:100300000000000010B5074C2378002B09D1FFF73F
:10031000D5FF054B002B02D0044800E000BF0123AD
:10032000237010BDE00E002000000000C02E001061
:10033000054B10B5002B03D00449054800E000BF71
:10034000FFF7CCFF10BDC04600000000E40E002007
:10035000C02E001070B50E000421300001F018FE10
:10036000002E12D0104B9B88012B0FD00400B1003F
:100370000E4D09180022AB5E0D4A023594466344C7
:100380001A04D31808C4A142F4D170BD0200B10010
:10039000064C09180025635F054D0234AC466344E2
:1003A00008C28A42F6D1F0E7D80200203C2F0010A4
:1003B0000180FFFFF0B5D6464F464646C0B5394CE2
:1003C00084B0A079062100F031F9E079062100F02F
:1003D0002DF9E0790621013000F028F9217BA06891
:1003E00001F072FF3049A06801F086FFA379277BF6
:1003F0009A46E37901259946C31D984680234146D4
:100400005B0200930903C3010B432849A6680B4014
:1004100001934B46990253461943254B02000B4367
:100420000393C023DB023900300002936B4602F0D5
:1004300061F853462A0049469A4003238B401A43E9
:1004400013003900300002F003F8390030000022B8
:1004500001F0B6FF42461F237900C919C90076187A
:100460001340D8363360052001F0FAFA2168800085
:1004700001F0A6FC217B030A8D4000061B04000C42
:1004800018434B00A2685B18DB00D318C833186010
:1004900013681D43156004B0E0BCBA46B146A846D7
:1004A000F0BDC046D8020020C02E0010FFFFFF9F05
:1004B00000001040F0B5C6460E00040004213000D4
:1004C00000B5170001F064FD8046002E0ED0050037
:1004D0007600A6190023E05E6421784301F048FC11
:1004E00003041B18023408C5A642F3D1404680BC61
:1004F000B846F0BD10B501F05DFD10BDF0B5DE46AB
:1005000057464E464546E0B5354B83B01B780090C4
:10051000002B5AD0334A00259046FA229202934685
:10052000012201922E486A1CD2B2825CA91CD20020
:10053000D3182D4A5B00D35AC9B2475C1B02052071
:10054000994601F08DFA4946800001F039FC434696
:100550001E7B9C6873009B190206DB00000A0004E6
:10056000120CE3180243C8331A604A4643461A6025
:10057000AC23FA215B005F4357438902380001F046
:100580001FFC03358146EDB25F451AD33300019F4E
:1005900010339F4000239C468023DB009A4600983E
:1005A00004365044B600009B196862681742FCD1BB
:1005B000043331519842F7D101239A46D444CC45B3
:1005C000F1D3074B5B5D002BACD1FA20400000F06B
:1005D0002FFD03B0F0BCBB46B246A946A046F0BD15
:1005E000D82E0010D80200203C31001070B5FFF763
:1005F000E1FE80210C484900FFF7ACFE06001425FF
:10060000FA20800000F014FD8021EAB24900300099
:10061000FFF750FF04001435FFF770FF2000FFF7CD
:1006200069FF642DECD1EAE73C2F0010094A8300F2
:1006300094464022634410B51C68C0006240C02448
:1006400014408022520113431C60034B9C466044BB
:10065000416010BD04C0014000400140024B1868D9
:100660008007C00F7047C04600C00640EFF31080FF
:1006700072B6034A1368002BFCD0BFF35F8F70473C
:100680002C0100D0BFF35F8F0022024B1A6080F371
:10069000108870472C0100D070B5EFF3108C72B643
:1006A0000D4D2B68002BFCD0BFF35F8F0724CB08C8
:1006B000C618C05C01230C40A3401C000440034248
:1006C00007D103433370BFF35F8F2C608CF3108826
:1006D00070BD100001F0CEFA2C0100D00021044BB7
:1006E000044ABFF35F8F02C39342FAD17047C046FA
:1006F000000100D0800100D0044A1078431CDBB216
:10070000172B00D9102313707047C046E802002051
:1007100001238340002904D0034A1360034A136075
:100720007047034A1360FBE780E200E000E100E06D
:1007300080E100E0024B10309B688000C058704799
:1007400000ED00E070B50D00EFF3108672B60F4AB1
:100750001368002BFCD0BFF35F8F0D4B10309B68EC
:1007600084001B590B4A934203D09D4201D001F0F3
:1007700099FA074B9B681D51BFF35F8FBFF35F8FE3
:100780000022024B1A6086F3108870BD240100D04D
:1007900000ED00E0CD010010F0B5DE4657464E46B4
:1007A0004546E0B50C0083B0EFF3108972B6584AA5
:1007B0001368002BFCD0BFF35F8F564B9A68030081
:1007C00010339F00D559544A9046954232D0A542E5
:1007D00043D0524EAA1B2F2A2CD801228240924687
:1007E00051464F4A12681140019151464D4A1160DD
:1007F000BFF35F8FEFF305829346002A33D10123C5
:100800002A009A4393689C4208D177E04B005B181A
:100810009B00F3189968A1422AD01A00062151566C
:100820000029F3DA019B002B19D052463E4B1A6087
:100830003B4B1A60374B9B68DD51BFF35F8FBFF3B3
:100840005F8F0022324B1A6089F3108803B0F0BC2E
:10085000BB46B246A946A046F0BD1500EAE752469F
:10086000304B1A60E6E79342C9D001F01BFAC6E7A5
:1008700006215956002921DB4A00501880003418FF
:100880008046A0689860E079D8710620205698715B
:10089000002824DBA488F01A6405241544440019B8
:1008A000E0240005400D24022043988052181F4B7D
:1008B0009200B6181A781970B271B3E75946002938
:1008C0000FD1FF3191711A49918018490A789A71B4
:1008D000184A9B1B5B415A43120D0A70A2E7164847
:1008E000E3E7164A1649D21A083A5002400D01436E
:1008F0009980144952080A43DA8093E70621515639
:1009000013000029B8DA5A46002AEAD14546DCE746
:10091000240100D000ED00E0CD010010EC02002029
:1009200000E100E080E100E080E200E0F71000205C
:1009300001BDFFFFAAAA000001BD000026030020A0
:1009400000F0FFFF00F8FFFF70B5EFF30581012411
:100950000443EFF3108C72B6214A1368002BFCD0CD
:10096000BFF35F8F1F4B05001F4AED1A6D416A43AD
:10097000120D1E4D8900AE6852B27658A6421CD0A8
:100980000621595691421CD012215956914222D02B
:100990001E215956914220D02A21595603249142B2
:1009A00010D0134B19781A708171BFF35F8F00223A
:1009B0000B4B1A608CF3108870BDAB680D4C5C500B
:1009C000EFE700246100091989005B18FF21997184
:1009D00009499980E5E70124F4E70224F2E7C046DB
:1009E000240100D0EC020020AAAA000000ED00E0E3
:1009F000F7100020CD01001001BDFFFF054B064A96
:100A00001360064A136053609360D36013615361AF
:100A1000936170478080808000E400E004E400E09F
:100A2000024B9C46614489000160704740000034DD
:100A300010B50400FFF760FE01002000FFF7F0FF93
:100A4000FF232371BFF35F8F10BDC04610B50400B4
:100A5000FFF752FE01002000FFF7E2FFFF23A38013
:100A6000BFF35F8F10BDC04683680B4810B5844646
:100A700061446244090112019A18591854684B687C
:100A800001209C4201D802D00020C0B210BD1268E3
:100A90000B689A42F9D8F7E7FFFFFF0F0A4B196876
:100AA000EFF3108072B60A68002AFCD0BFF35F8FA4
:100AB0001B68BFF35F8F00221A6080F3108840BF6D
:100AC000002000217047C046E0100020F8B55746CE
:100AD0004E464546DE46E0B599460CAB1C780DAB5C
:100AE0001B78060090469A460768002C11D1BC7B03
:100AF000002C42D065003B682D19033D59194B78F5
:100B0000BB73002B00D1FB7300238B704B700B70F9
:100B100004E065003B682D19033D5919B2682A4B62
:100B200094464246E3181B0163441A604A465A60E1
:100B30000A9A9A600B9ADA6000238B704B700B70E4
:100B40007B7B9B46002B2BD022005946B8687B68E4
:100B500098473A68002816D05B4658465B005B44CD
:100B60005519033BA870D118D35C002B00D06B70D3
:100B70005B460C707B73A34513D0F0BCBB46B246FA
:100B8000A946A046F8BD5B465B005B44033BD31817
:100B90009C705119525D002A00D05A705B460B7050
:100BA0007C7342464B46307D00F090FB051E06D01C
:100BB0005346002B03D12100306800F0ABFD0E9BA3
:100BC000002BDAD01D70D8E7FFFFFF0FF0B5DE462F
:100BD00057464E4645460023E0B58BB00893674B19
:100BE0008200D45800239B46099000F00FFB6268F6
:100BF00006000F00EFF3108572B61368002BFCD0CF
:100C0000BFF35F8F23689C465B7B9946002B00D126
:100C100069E0A2685A4B90464B441B0198444346F6
:100C20001A685B6810001900801BB941002900DCBC
:100C300063E0099800F04AFB002300229846002355
:100C40000692079300239A466368BFF35F8F5A4664
:100C50001A6085F310885346002B08D10028C4D1B0
:100C60000BB0F0BCBB46B246A946A046F0BD089BFF
:100C7000414618024B461843D047626806000F00F1
:100C8000EFF3108572B61368002BFCD0BFF35F8FB3
:100C9000002F50DB33003B4302D02369002B61D18E
:100CA0002368D97B002907D04A00521819688C465E
:100CB00049466244033A51709A7B002A01D14A4660
:100CC0009A734A46DA734B46E168013BCA5C0132CB
:100CD000CA545B4623616368BFF35F8F5A461A604C
:100CE00085F3108881E700230022984600230692AE
:100CF0000793002300209A46A6E7002902D1002886
:100D000000D096E70021604600F082FC43461A6856
:100D10005B680692079343469B689A464346DB68A6
:100D20009846E3684B44013B1B7808931B0203433E
:100D30002361002088E72369002BB1D0069A079B26
:100D4000921BBB41002B15DB5946049101210391F5
:100D50004946029141460191514620000091FFF71A
:100D6000B5FEB6E700F052FA32003B0012184B41D4
:100D7000002BE9DA0122034B5242E5E7C4100020C0
:100D8000FFFFFF0FFFFFFF7F10B5144C6368002BC0
:100D900004D00A211248FFF743FE10BD2300114A78
:100DA0001021206800F04EFB032000F023FA0320FE
:100DB00000F0F6FA03200C4900F042FAFFF79CFC21
:100DC0000A4B9C4603232375D0231B061B686044F3
:100DD0006375074B80006060DC60DAE73403002055
:100DE000E0100020690A0010CD0B00104000003414
:100DF000C4100020F0B54E464546DE465746E0B5E5
:100E000085B0019310AB1B7806000393002399462D
:100E1000984600927268EFF3108B72B61368002B3D
:100E2000FCD0BFF35F8F3568AC7B002C3DD06700F2
:100E30002B683F19033FDB195A78AA73002A00D1A7
:100E4000EA73B168474A8C4600980199A2181201CA
:100E50006244106051600E9991600F99D1604246D2
:100E60009A705A701A706B7B9A46002B67D02200DA
:100E70001900A8686B6898472A68002852D0534622
:100E800050465B005344D719033BB870D118D35C6C
:100E9000002B00D07B7053460C706B7354454FD0C1
:100EA000F3681B19013B187800E000207368BFF35A
:100EB0005F8F42461A608BF31088002C4FD04B4650
:100EC000002B08D10002204305B0F0BCBB46B2465F
:100ED000A946A046F0BD039B002B3ED00E9B0020F0
:100EE0000F999847030004000D000B4335D00029EB
:100EF0000ADA009A019B121BAB4100920193002B6E
:100F00000ADB039B994685E700F080F924184D41E0
:100F100000940195002DF4DA0123134C5B420093F9
:100F20000194EEE753465B005344033BD3189C7097
:100F3000D119D25D002A00D05A7053460B706C73E1
:100F4000307D009A019B00F0C1F981460028A7D0AE
:100F50002100306800F0DEFBA2E70020B4E70120AA
:100F60004042B1E7FFFFFF0FFFFFFF7FF0B5040036
:100F70000D0006267642F717C64636196F4100B5B2
:100F800084B08F4214D811D000F040F932003B00F9
:100F9000121A8B41002B15DC002B3ED020002900BB
:100FA00000F03EF904B080BCB846F0BD8642EBD9F3
:100FB0000026002700F02AF932003B00121A8B416C
:100FC000002BE9DD002302930193154B32000093BF
:100FD00014483B00FFF70EFF0028DFDB0023984694
:100FE000BC46114A114F7B6A9C4504D8B96A8E42AF
:100FF000D4D99C45D2D11168EFF3108072B60B683A
:10100000002BFCD0BFF35F8F1368BFF35F8F4146A7
:10101000196080F3108820BFE5E7002ABED0D1E731
:101020009D0A001034030020E0100020004005401D
:1010300070B5060000F0EAF8FA2204000D00002363
:1010400030000021920000F041FF001969410029A1
:1010500002DBFFF78BFF70BD012001494042F8E73A
:10106000FFFFFF7FF0B5EFF30583CE46474680B51F
:1010700005000C0085B0002B12D02C4A0020536ACA
:101080009C4203D8926A0130AA4204D305B0C0BC86
:10109000B946B046F0BDE01A421E9041C0B2F5E735
:1010A000234E02930193234B0200009330000B0068
:1010B000FFF7A0FE031EE0DD20BF7168EFF310878D
:1010C00072B60A68002AFCD0BFF35F8FDAB294468A
:1010D0003068427B62451DD0FF221A40510089468C
:1010E000016891448846494641440339897800297A
:1010F00013D0F1681B0A88464244013A1278DBB2E9
:101100009A420FD07368BFF35F8F00221A6087F393
:101110001088B2E7FF221A40EBE732699342F1D11F
:101120003161EFE7614600F0F5FAEBE7004005407A
:10113000340300209D0A0010F0B5EFF30582D64677
:101140004F4646461000C0B51038EFF3108872B60F
:10115000214C2368002BFCD0BFF35F8F01231900C3
:1011600081401E4D1F006963AA461D4D29601D4D1B
:101170002E78AC463500C5402F402B4209D1BFF335
:101180005F8F276088F31088E0BCBA46B146A84656
:10119000F0BD5346144D5F6A83005D59AF420ED3D4
:1011A000124A8E439B5862461670BFF35F8F00222F
:1011B000226088F31088002BE6D09847E4E70C4BB8
:1011C00092009C46624413681360BFF35F8F002354
:1011D000236088F31088D7E7280100D0004005403D
:1011E0003C700540F8100020E41000203C0F002067
:1011F000D03F054010B50100024A0348FFF74CFA02
:1012000010BDC0466C310010F5100020034B596A28
:101210000A00986A596A8A42FAD17047004005402C
:10122000064A536A9942FCD807D1044B02E05A6A35
:10123000914202D19A6A8242F9D370470040054038
:1012400070B504000D00EFF3108672B61A4A1368E9
:10125000002BFCD0BFF35F8F002D1BD02000FFF7C9
:1012600069FA164981420AD02000FFF76BFA012182
:101270002000FFF74DFA0123A340114A1360114BE0
:10128000A400E550BFF35F8F00220B4B1A6086F37A
:10129000108870BD0B4BA200D5500122A2400A4914
:1012A00020000B7893430B700449FFF775FA002177
:1012B0002000FFF72DFAE5E7280100D039110010D2
:1012C000386005403C0F0020F8100020F0B54F4674
:1012D000D6464646C0B507002C4C616A0D00A66A8A
:1012E000616AA942FAD18B4208D805D00120E0BC3E
:1012F000BA46B146A846F0BDB242F7D9EFF3108A1C
:1013000072B6234801680029FCD0BFF35F8F012526
:10131000BD4020491D4C8846097889462943C9B2F9
:101320008C46414660460870391D1B48890065633C
:101330000A51B9000B50216A0020294219D0616A74
:101340000800A66A616A8142FAD18B4219D801D19C
:10135000B24216D8CC4516D00C4B1F201D625D63DF
:1013600001230740BB400D4A1E38136043464A46DE
:101370001A70BFF35F8F0022054B1A608AF3108842
:10138000B5E70020F5E70120F3E7C046004005403F
:10139000280100D0F8100020E410002080E200E0D6
:1013A000EFF3108C72B60A490B68002BFCD0BFF328
:1013B0005F8F01238340074A0748136202789A43EC
:1013C0000270BFF35F8F00230B608CF310887047AF
:1013D000280100D000400540F810002070B505003D
:1013E00014001600002915D00C00002A12D08068C5
:1013F0006B689847296800280ED073009B1962001B
:10140000033B1219CB18033A9C7088188A5C002A97
:1014100015D10670200070BD63001B197200033BDC
:101420009219CB18033A9E7088188A5C002A02D160
:1014300004703400EEE75A7004703400EAE75A7022
:101440000670E7E730B583600023CCB24373013305
:10145000047342608373C4730D000068012C06D9C5
:10146000421C0133DBB2137003329C42F9D1FF21DD
:1014700029404B005918002340180338437030BDF1
:10148000F8B5CE46474606000C0080B5002907D0C7
:101490004D0003686D18033D5A195778002F04D189
:1014A0002000C0BCB946B046F8BD7900C91903395F
:1014B00088464344597889460021597051707368B1
:1014C0003A002100806898473368002814D04246CB
:1014D0009A18947059195B5D002B00D053700F70EF
:1014E000270049463000FFF7CBFF390002003000EB
:1014F000FFF774FF0400D3E7424641465D19AF7021
:101500009A185B5C002B00D06B701470E9E7C04642
:10151000F0B557464546DE464E46E0B50D006B0039
:1015200001685B19DF1E0400C85D83B00192CA190F
:10153000002850D043001B18033BCB185E78B446FC
:10154000002E1AD1019E002E42D0E67B002E04D040
:1015500073009B19CB18033B5D70A37B002B00D15C
:10156000A573E57300282FD10023537003B0F0BC9E
:10157000BB46B246A946A046F0BD72006244033A9B
:1015800089184A78904600224A7091465A700100A4
:1015900032002000FFF722FF43468246002B07D08F
:1015A0005B0021684344033BCB185A78002A16D1CC
:1015B000424651462000FFF711FF2168019BCA19DE
:1015C000002BC2D10028CFD043001B18033BCB18FF
:1015D00000219970C8E7019B002BB6D1C4E75000E9
:1015E0008018033809184878834648464870587070
:1015F00041462000FFF7F2FE594680462000FFF7E3
:101600003FFF414602002000FFF7E8FE8046CFE79B
:10161000F0B557464546DE464E46E0B583B00191EB
:10162000457B04006B0000685B19DF1EC15DC219B9
:10163000002952D04B005B18033BC3185E78B446B8
:10164000002E1CD1019E002E44D0E67B002E04D03B
:1016500073009B19C318033B5D70A37B002B00D163
:10166000A573E573002931D10023280053706173FD
:1016700003B0F0BCBB46B246A946A046F0BD72001E
:101680006244033A801842789046002242709146A4
:101690005A7020003200FFF7A1FE43468246002B1D
:1016A00007D05B0021684344033BCB185A78002ADB
:1016B00017D1424651462000FFF790FE019B0100E2
:1016C0002068C219002BC0D10029CDD04B005B1877
:1016D000033BC31800209870C6E7019B002BB4D1D0
:1016E000C2E75000801803380918487883464846F6
:1016F0004870587041462000FFF770FE59468046FA
:101700002000FFF7BDFE414602002000FFF766FE05
:101710008046CEE770B5040000292CD0437B8B4275
:101720002ED0056848004018033828188278002A0F
:1017300021D053009B18033BEA5CEE188A4202D189
:101740001BE0002A08D053009B18033BEB185A7883
:101750008A42F6D142785A70002301228370437086
:101760002000FFF7D5FE617B02002000FFF736FE68
:101770006073012000E0002070BD43783370EBE718
:1017800001221900FFF7C4FE60730120F4E7C04690
:1017900030B50C2083B000F0B9F9FEF75FFF0028E8
:1017A0000ED0994B994A1A605A609A60DA601A61B1
:1017B0005A619A61DA611A62954A5A6203B030BD81
:1017C000944CA06700F0AAF90122934B1A60636C55
:1017D000012BFCD10322914B1A608E4A936B012B93
:1017E000FCD1013301218E4A8E480093043300F06E
:1017F0003DF905238C4A009301218C4800F036F90D
:101800008B4B5A68FF2A02D8802252005A608022ED
:101810007D4C824B21691201854D1A60002907D049
:10182000606900F0CDFA431C5800C0180338FDD29F
:10183000E0217F4B02201A681140802252012A4386
:1018400011601968484003210140116004219A6821
:101850001142FCD08022802192012A4309011160AB
:10186000802252005A60734B2361734B5968FF29E1
:1018700000D85A600321684A6F4B116002399A6898
:101880001142FCD0E0201A681040802252011A4315
:101890001060186848400321014002201160664929
:1018A0008A681042FCD080229201134380221201E8
:1018B0001A608022614B52004A606361604B596834
:1018C000FF2900D85A6080225E4BE16912015C4D0D
:1018D0001A60002907D0606900F072FA431C5800B2
:1018E000C0180338FDD2E02255490B681A40802306
:1018F0005B012B431A60802380229B012B43120142
:101900001A608022414B52004A60E3614E4B596895
:10191000FF2900D85A6080224C4B216A12014A4D9F
:101920001A60002907D0606900F04AFA431C580089
:10193000C0180338FDD2E02243490B681A408023C7
:101940005B012B431A60802380229B012B431201F1
:101950001A60802380225B004B602C4BD2022362F2
:101960003B4B5968914200D25A608022394B616AE0
:101970001201374D1A60002907D0606900F020FA83
:10198000431C5800C0180338FDD2E02230490B68D0
:101990001A4080235B012B431A60802380229B0125
:1019A0002B4312011A608023DB024B60184B6362E9
:1019B000294B5A68FF2A02D8802252005A6080229E
:1019C000264BA1691201244D1A60002907D06069D5
:1019D00000F0F6F9431C5800C0180338FDD2E0228D
:1019E0001D490B681A4080235B012B431A6080233A
:1019F00080229B012B4312011A6080235B004B6005
:101A00000E4BA361DAE6C0464C100020006CDC02ED
:101A10001BB70000008000403CB0004030B00040E8
:101A2000002F685900800240008C864700C00240A9
:101A300030800040001BB7003C80004040597307D5
:101A40005480004054B000406080004060B00040CE
:101A50006C8000406CB000404880004048B00040BE
:101A6000014B8000C05870474C100020F8B50400AE
:101A700021481D0017000E0000F0A2F901003800F7
:101A800000F09EF9069B29041B0319432368002BD1
:101A900020DB1A4B1A4DE21853425A4180235B0156
:101AA0009C461203174B62441A60174B1A601700CA
:101AB000AB689F43FBD1C022231D92011A4321230F
:101AC0002660A06013602368002BFCDA0823E16025
:101AD0001360F8BD3F2322681340B342D9D1A368F5
:101AE0001B051B0D8342D4D1EE22E368D2021340C2
:101AF0008B42CED1EDE7C046001BB7000040FDBFD2
:101B000000C0004000E0004000F000408023024A96
:101B10009B000343D362704700800540AA23064A16
:101B20001B0113602F230549D360054B19605368CF
:101B3000002BFCDA7047C0460040024000B0FA00BB
:101B4000006002402C4B2D4A70B51A602C4A2D4B78
:101B50002D491A6014008B689C43FBD12B4D2C4EF1
:101B6000B54208D2013E761BB60808CD984723003F
:101B70000134B342F9D1FFF70BFE264A214B1A601C
:101B8000214A9368DB43DB01DD09002BF9D14022B8
:101B9000214B224C224E9A675A671A67DA66B44282
:101BA00008D223682000002B20D00834FEF74EFF17
:101BB000B442F6D31B4E1C4CC022A168300000F08A
:101BC0000BFAA660FEF78AFDFEF718FFFFF7DCF8B8
:101BD000164C174EB44208D2013E361BB60808CC4C
:101BE00098472B0001359E42F9D170BD0834FEF7AD
:101BF0001FFFB442D5D3DDE700E00040BFCDFBFEC0
:101C0000FE7F3C0000F0004000C00040C80B0020F8
:101C1000D80B0020FFFFFF0100F00140C00B0020A7
:101C2000C80B00200000002000ED00E0D80B0020D1
:101C3000E00B002000BEFDE7094A03001068002801
:101C400005D00849C3188B4207D81360704706486F
:101C50000449C31810608B42F7D901204042F5E7D0
:101C6000BC10002000000420FC10002010B5FFF77D
:101C7000E1FFC0460FB400B5084883B000F0DEFABB
:101C8000049B002B07D005A91800019100F018F85B
:101C9000034800F0D3FA0120FFF7CCFF9031001089
:101CA000A031001010B50148FFF7E4FFA431001087
:101CB00010B5002800D110BD00F074FAFBE7C04653
:101CC00010B5094A0300146884B0002C08D0012222
:101CD00000910648524203A9A047012004B010BD5C
:101CE00000F0ACFA0020F9E7C0100020B11C001091
:101CF00001480421014B1847600300202D1D0010EE
:101D0000014B9B681847000060030020142310B5A6
:101D10000100188804331B88984710BD162310B59E
:101D20000100188802331B88984710BDF8B5474654
:101D3000CE4680B50F1E19D01423994604330400F3
:101D40000025012698464B461888434621681B8883
:101D5000984701C4431E9841013540420640AF42B6
:101D6000F1D13000C0BCB946B046F8BD0126F8E755
:101D7000124A936F9B0815D29066D166002905D050
:101D8000FFE7FFE7FFE7516F106F704704B5802151
:101D90000906C2175140002800D0C84301F080F85E
:101DA000002104BDF0B5146E556E576F166FFFF726
:101DB000E3FF1466556657671667F0BD000000D054
:101DC000114A936F9B0813D210665166002905D003
:101DD000FFE7FFE7FFE7516F106F704704B500287A
:101DE00001D00020C04301F05BF8002104BDC046D3
:101DF000F0B5146E556E576F166FFFF7E5FF14665A
:101E0000556657671667F0BD000000D0132370B504
:101E10001D78012D15D010DD1C48FFF77FFF1C4CED
:101E200001008022200000F0D7F8022D06D01948CA
:101E3000FFF76CFF184B186070BD154C174BA3646F
:101E4000F5E7164B124C23606360A360E3602361E7
:101E50006361A361E36123626362A362E36223635C
:101E60006363A363E36323646364A364E36423653C
:101E70006365A365E36523666366A366E36623671C
:101E80006367A367E367A364D1E7C04653440000D8
:101E9000E00C00204C330000DC100020A11E0010DC
:101EA00007B5604601880A0A0230DF2AFAD1C9B2B2
:101EB000820804D3028840880004104300E00068D0
:101EC000014A5050039007BDE00C002051434343AA
:101ED000C9188C46110C83B24B4310B4040C6143F7
:101EE00092B280B2504362431C041B0C001910BC18
:101EF00059411304120CC01851416144704700004D
:101F0000132310B512481C78FFF708FF0100012CBD
:101F10000AD003DD80220F4800F05EF80E48FFF77C
:101F2000F5FE0E4B186010BD0A4C5422200000F044
:101F300053F80B4B6365A365E36523666366A3668D
:101F4000E36623676367A367E3672362E361E5E70B
:101F500053460000E00D00204C330000DC10002050
:101F6000651F001007B5604601880A0A0230DF2AA3
:101F7000FAD1C9B2820804D3028840880004104311
:101F800000E00068014A5050039007BDE00D0020BA
:101F900010B50C0000F0F4FA002804D0034B04192B
:101FA0009C4200D810BD0248FFF764FE00000420E8
:101FB000B031001010B500F027FB10BD014804211E
:101FC000014B1847700300202D1D0010014B1B68AA
:101FD0001847000070030020014B5B6818470000A1
:101FE00070030020030010B5080011001B6898471B
:101FF00010BDC046F0B546464F46D646C0B5437DF7
:1020000080460E001700002B46D0002A3FDD4B1EF5
:102010009946244B0125002400209A460DE04B46AA
:102020001B5D0D3B5A425341325DDBB20A2A0BD095
:102030002B00013401359F421ADD002CEFD14346BD
:10204000325D1B7D0A2AF3D1002BF1D1A04204DAC4
:102050004346211A1B6830189847434650461B6870
:1020600002219847013428002B0001359F42E4DC0F
:10207000874204DD4346391A1B6830189847F61921
:10208000013E33780D3B5A42534142461375E0BC42
:10209000BA46B146A846F0BD036811003000984723
:1020A000F5E7C04628320010F0B5DE4657464E46EA
:1020B0004546E0B585B017001C0006000D00FFF78F
:1020C000A5F80023304A12184B41002B58DB2F494A
:1020D00008008A4600F0ECFE01906B1C03D1300032
:1020E00000F06CFD0500002C25D1294B9846294BAA
:1020F0001C68002C15D0002F20D1274F02E0246946
:10210000002C0ED02368002BF9D03B68002B01D0A7
:10211000A342F4D120002A003100C0472469002CDA
:10212000F0D1019B002B27D105B0F0BCBB46B246D5
:10213000A946A046F0BD194B9846D8E7164B9946DC
:1021400002ABDF1D0A239B4602E02469002CE8D085
:102150002368002BF9D04B461B68002B01D0A3420B
:10216000F3D12A0031002000C0475B46012239002C
:1021700020003B70C047E8E7504600F089FED3E7F7
:102180000122074B5242A2E740420F00C00B002041
:10219000F51F0010B4100020B8100020E51F00103B
:1021A000FFFFFF7FF0B5CE46474680B583B06B4654
:1021B0000600DD1D2870FFF729F800231A4A1218BF
:1021C0004B41002B2BDB19490800884600F070FEBC
:1021D000174B81461C68002C14D0164F02E024696E
:1021E000002C0FD02368002BF9D03B68002B01D0C6
:1021F000A342F4D1200001222900FFF7FBFE24694D
:10220000002CEFD14B46002B05D1300003B0C0BCF1
:10221000B946B046F0BD404600F03AFEF5E701226F
:10222000054B5242CFE7C04640420F00C00B002092
:10223000B4100020B8100020FFFFFF7F70B504002D
:1022400000F0BCFC00230100050001222000FFF784
:102250002BFF084B1C68002C06D06368002B05D0B0
:1022600098472469002CF8D1280070BD2469002CFF
:10227000F3D1F9E7B410002010B5024800F004F8DB
:1022800010BDC046D410002030B5002589B0040030
:102290000922002101A80095FFF798FE09220021DC
:1022A00005A80495FFF792FE4B236A466846137013
:1022B00004A90D2200F0E4FD152108222000694444
:1022C000FFF78AFE09B030BD074B10B5984204D025
:1022D000064A0748FEF7E0F910BD064A04480431F3
:1022E000FEF7DAF9F8E7C04600003050503200102F
:1022F000F61000202C320010F0B5D6464F46464668
:102300008846C0B505240600FEF7B0F943461F799C
:102310001C57284B8146F01843425841264B9A4699
:1023200083009C4653466246985801222023BA40B7
:10233000DB1B013A002C32DB9C422DDCA240150055
:10234000104229D1002F1AD043465A781978120228
:10235000114342469B78D2781B040B4312061A4362
:102360009046002241465300C95A4B0B00D109192F
:10237000131912339B00013299519742F2D85346F8
:10238000624605439D504846FEF77CF92000E0BCBC
:10239000BA46B146A846F0BD0848FFF76BFC002BD3
:1023A00002DAF9E7013BF7D315009D401C00054216
:1023B000F8D1C7E70000D0AF340F00206C32001016
:1023C0004B00F0B557469A468A445346DB00C11885
:1023D000844608004E46DE464546DC300468E0B5DB
:1023E000A3460C00CC34246883B00194C024CC33C1
:1023F000A401634423438024A4021C601F24A1463B
:10240000E024240200262023A046D8311C00052BFE
:1024100000D905247701A5063D4305604D46474692
:1024200015403D430D601B1B36195209002BEDD1A1
:102430005B4603605346D8006044019BCC30036088
:1024400003B0F0BCBB46B246A946A046F0BDC046AC
:10245000F0B5DE4657464E4645468B46E0B51C0075
:1024600085B04B0003935B44DB00C5182F00DC37BD
:1024700016003A68844600922A00CC321268CC33A7
:102480000192C0226344920113438022920202907F
:102490001A60002C18D08023DB049A460123994649
:1024A000134BD83598462000FFF72AFC52464301CB
:1024B00013433B6033004A46C34013404246134334
:1024C0002B60631E1C40EED1029B03989C4658442F
:1024D000C00060440300009ADC331A60019BCC30DA
:1024E000036005B0F0BCBB46B246A946A046F0BDAD
:1024F00080E00000F0B501258D400468AC434D003C
:1025000004606C18E40004192600C836002B28D09B
:102510001F68DC3437605F6877609F68DB68B7608E
:1025200023606D18EB001D008024D035451964012F
:102530002C4380252D062560256001250F4C2E009B
:102540008C4084600C1DA640802408318D401F21E2
:10255000A4010443C0180A40D830266025600260F8
:10256000F0BD80277F023760F8277F027760C027A1
:10257000DC343F03B7602360D3E7C04601010101AB
:10258000030010B50A0003490868190000F004F8B8
:1025900010BDC0468003002010B5514300F03EF846
:1025A000041E0ED00300083B5A6803239A43043AE2
:1025B000242A15D80300132A05D800221A605A606D
:1025C0009A60200010BD00210833016041601B2A81
:1025D000F3D98160C160242A06D003001033ECE7F0
:1025E0000021FFF7F3FCECE70300016118334161C0
:1025F000E3E7C04610B5034B0100186800F00EF881
:1026000010BDC0468003002010B5034B01001868C0
:1026100000F050FB10BDC04680030020F0B54E46D0
:102620004546DE465746E0B50D000B35060083B043
:10263000162D22D8102900D9B2E000F0A9FA1025F1
:1026400018230220CC4FFB181A005C68083A944209
:1026500000D1B5E0032362689A431300E268A168E1
:10266000CA6091600122E318596830000A435A6039
:1026700000F090FA2000083095E007239D4300D534
:102680008EE0A94200D98BE000F082FAFC235B00C7
:102690009D4200D2A1E1680A00D18BE0042800D954
:1026A00074E138239846A80980443930C100B24FFC
:1026B00079184C680839A1420ED003239C4604E0E7
:1026C000002ACBDAE468A14206D0624663689343ED
:1026D0005A1B0F2AF4DD40463A003C690832944206
:1026E00000D178E003236168994389460B00491BB8
:1026F0000F2900DD75E17A613A610029B2DA8022A2
:102700009200914500D310E15909DA0801238B406A
:10271000D2007968D2190B4391687B60E260A160B6
:102720009460CC60012182109140994259D80B42AB
:1027300005D103229043490004300B42FBD0032310
:102740009846C3009946B944CC4682466346DC6845
:10275000A44507D126E1002A00DB2FE1E468A44567
:1027600000D11FE14246636893435A1B0F2AF2DDF2
:1027700001208046611905436560A068E568083757
:10278000C560A86040461043F960B9604860CF60FA
:1027900030008F60E25000F0FDF92000083002E0C8
:1027A0000C230020336003B0F0BCBB46B246A94600
:1027B000A046F0BD80213F2340209846890076E75F
:1027C000DC680230A34200D044E73A003C6908329A
:1027D000944200D086E701217B68821091409942A3
:1027E000A5D90323BC6862689A439146954203D8F1
:1027F000531B0F2B00DD8AE023004B445F4A0193FB
:102800005F4B93469A4612681B68EB18013200D161
:1028100036E15C4A944663441B0B1B030093300073
:10282000009900F0B9F903008046013300D1F3E0CC
:10283000019B834200D9EDE05246009852680300A4
:102840009446514663444B6001991A00414500D1BA
:102850004BE15B461B68013300D150E143460199CF
:102860005B1A9A1853465A600723424641461A405B
:102870000192194200D10DE108239846881A424B73
:102880000099804441449B1A5B1A1B051B0D009163
:10289000300019009B4600F07FF9431C00D14AE14B
:1028A0004346C01A03005B440093534652465B689C
:1028B00001215B44536042464046BA60009A0A4395
:1028C0004260BC4200D11EE14A460F2A00D81CE1FA
:1028D00007200C3A82436068014005201143616083
:1028E000A118486088600F2A00D92FE1424644466B
:1028F00052685146C96A994201D25146CB6251464B
:10290000096B994200D389E051460B6386E00122AE
:10291000290013431143651961603000BD606B608D
:1029200000F038F9200008303DE75A0A042A6BD934
:10293000142A00D9BEE011005C325B31D2000823BA
:102940005B429C46BA18944463469A6803239846AF
:10295000944500D197E0434651689943494502D9CF
:1029600092689445F7D1D3689C467B686146A26023
:10297000E1608C60D460D5E6B8070020B007002085
:10298000FC0E00200F10000008100000142852D97F
:10299000542800D996E06E239846280B80446F3067
:1029A000C10084E608239B46073BDC449B46DA448F
:1029B00043465246134200D0C8E64CE00122E318D9
:1029C000596830000A435A60E368A268D3609A608D
:1029D00000F0E0F820000830E5E62B00E8080833B6
:1029E00030E6012360191D43656078613861C2607B
:1029F00082601A004B460A4342603000E15000F00A
:102A0000C9F820000830CEE69A0911003932383171
:102A1000D20094E7BC4260D0BC68626803239A434A
:102A2000531B954202D80F2B00DD70E7300000F0F9
:102A3000B1F80020B7E65B23984680445C30C100C3
:102A400035E608235B429C46E1444B469B680138CF
:102A50004B4500D097E043460342F2D17B688B435D
:102A60007B604900994200D9BBE6002904D1B8E651
:102A7000042294464900E2440B42F9D0504660E6F5
:102A800010330093CBE68910023B8B4079680B43EF
:102A90007B606BE7009B300043445B421B051B0DD2
:102AA00019009B4600F078F8431C00D0F8E600239C
:102AB0009B46FAE6542A2AD81A0B11006F326E315F
:102AC000D2003CE7AA235B0098422AD8DD3B984617
:102AD000E80B80447830C100E9E553465B68009A12
:102AE0009C46534662445A60B3E6090500D0B0E6FE
:102AF0000200BC684A4401310A436260F9E65B4661
:102B000042461A60B0E64446F3E641608EE7AA21E9
:102B100049008A4224D8DA0B110078327731D2008A
:102B20000DE71A4B984224D87C239846A80C804481
:102B30007D30C100BBE5009A019B94464246083BAC
:102B400063449B1A009300239B46AEE621003000AD
:102B5000083100F0AFF85346BC685B686268C8E6AD
:102B60000A498A420BD89A0C11007D327C31D2007E
:102B7000E5E6FE217E237F209846890097E5FE2228
:102B80007E219200DBE67B686BE7C04654050000BF
:102B90007047C0467047C046002370B5064D04001C
:102BA00008002B60FFF748F8431C00D070BD2B686D
:102BB000002BFBD02360F9E7300F002010B583070E
:102BC0000AD00300032102E001330B4205D01A783A
:102BD000002AF9D1181A10BD030019680C4A0D4CCF
:102BE0008A188A4322420FD15968094A04338A1845
:102BF0008A43224208D15968054A04338A188A4315
:102C00002242F1D000E001331A78002AFBD1E1E73B
:102C1000FFFEFEFE80808080F8B50C000500FFF707
:102C2000B7FF204FBB685E6803239E431E4B341BD7
:102C30009C466444240B013C113324039C4207DB73
:102C400000212800FFF7A8FFBB689B19984204D019
:102C50002800FFF79FFF0020F8BD28006142FFF722
:102C60009BFF431C0DD00122BB68361B16435E60E0
:102C70000E4B28001A68141B1C60FFF78BFF012005
:102C8000EAE700212800FFF787FFBA68831A0F2BB5
:102C9000DEDD07490968401A0449086001210B4339
:102CA0005360D5E7B8070020EF0F0000000F0020A9
:102CB000B0070020F0B5C64605000C0000B500299D
:102CC0004FD0FFF765FF210008394C68012622002C
:102CD0000320B2438F187B68834362489846836819
:102CE000BB426AD043467B6026421ED108239C46E5
:102CF0000C688444091B12198C6864454FD0CB685A
:102D0000E3609C604346FC186468344211D1BB68A0
:102D1000554C4244A34200D17EE0FC68DC60A360D5
:102D2000012313434B608A5006E0FC186468344268
:102D3000EDD016434E603A6080239B009A4213D236
:102D40005409D3080122A2404468DB0022434260B8
:102D500018188368C8608B608160D9602800FFF70D
:102D600019FF80BCB846F0BD530A042B3ED8940925
:102D7000260039343836E40004192368083C032758
:102D80009C4242D05868B843904202D99B689C420A
:102D9000F8D1DC68CC608B60A160D960DEE7434687
:102DA000F8184068304257D1FB68B868424416436F
:102DB000C36098604E608A50D0E7130043442642B7
:102DC00006D10A68891A8C689B18CA68E260946008
:102DD00001221A434A60254A816012689A42BDD88E
:102DE000234B28001968FFF717FFB7E7142B07D903
:102DF000542B1AD8140B26006F346E36E400BBE750
:102E00001E005C335B36DC00B6E70122B610B24030
:102E1000466832434260BDE7D9609960CB608B6001
:102E2000012313434B608A5098E7AA246400A3420D
:102E300005D8D40B260078347736E4009CE70D4C97
:102E4000A34205D8940C26007D347C36E40093E739
:102E5000FE247E26A4008FE7330013434B603A60C4
:102E60007CE7C046B8070020C0070020B407002058
:102E7000FC0E002054050000F8B5C046000000001C
:102E800001B40248844601BC604700BFFD01002038
:102E900001B40248844601BC604700BF5D010020C8
:102EA00001B40248844601BC604700BFC102002053
:102EB00001B40248844601BC604700BFC100002045
:102EC000C82E001008FF00000170401801602EE8B5
:102ED0000160440801702EF8060103050101030199
:102EE00002050102010202060101050101060104B9
:102EF00003010105010106010105010203010201AF
:102F000001010600010501010301010201040201A2
:102F1000030301010501020501010601010301028C
:102F20000201020101040501040301010201010182
:102F3000010106000101010105000800FF7F238354
:102F400047866A898B8CAA8FC792E195F8980A9C6C
:102F5000199F23A227A526A81EAB10AEFBB0DEB397
:102F6000B9B68CB955BC16BFCDC17AC41CC7B3C99C
:102F70003FCCBFCE32D19AD3F4D542D881DAB3DC7C
:102F8000D6DEEBE0F1E2E7E4CEE6A5E86CEA23EC7E
:102F9000C9ED5EEFE1F054F2B4F303F540F66BF7E0
:102FA00083F889F97CFA5CFB28FCE2FC89FD1CFEB5
:102FB0009CFE08FF61FFA6FFD7FFF5FFFEFFF5FFB0
:102FC000D7FFA6FF61FF08FF9CFE1CFE89FDE2FC07
:102FD00029FC5CFB7CFA89F983F86BF740F603F572
:102FE000B4F354F2E1F05EEFC9ED23EC6CEAA5E82E
:102FF000CEE6E7E4F1E2EBE0D6DEB3DC81DA42D8FC
:10300000F4D59AD332D1BFCE3FCCB3C91CC77AC452
:10301000CDC116BF55BC8CB9B9B6DEB3FBB010AE8E
:103020001EAB26A827A522A2199F0A9CF898E19515
:10303000C792AA8F8B8C698947862383FF7FDB7CAD
:10304000B779947673735470376D1D6A0667F463AD
:10305000E560DB5DD75AD857E054EE51034F204C62
:1030600045497246A843E840313E843BE2384B363E
:10307000BF333F31CB2E642C0A2ABC277D254B233E
:103080002821131F0D1D171B301959179215DB131B
:103090003512A0101D0FAA0D490CFB0ABE0993089A
:1030A0007B0775068205A204D5031C037502E201A5
:1030B0006201F6009D005800270009000000090089
:1030C000270058009D00F6006201E20175021C0312
:1030D000D603A304830575067B079308BE09FB0A84
:1030E0004A0CAA0D1D0FA1103612DB1392155917A9
:1030F0003019171B0E1D131F28214B237D25BD27BB
:103100000A2A642CCC2E4031C0334B36E338853B41
:10311000313EE840A94373464549214C044FEE51E6
:10312000E054D957D75ADC5DE560F46307671D6A40
:10313000376D547074739576B879DB7CFF0083002B
:103140009300A500AF00C400DC00F700FF000601FB
:1031500026014A015D018801B801EE01FF000C0261
:10316000DC039402BA0210037003DC03486172644A
:103170007761726520616C61726D20256420616CDD
:10318000726561647920636C61696D65640000003B
:103190000A2A2A2A2050414E4943202A2A2A0A0074
:1031A0000A000000486172642061737365727400E4
:1031B0004F7574206F66206D656D6F727900000029
:1031C00052656C6561736500626F6F74325F773250
:1031D0003571303830000000312E352E31000000BE
:1031E0007069636F00000000617564696F5F6669F4
:1031F000726D7761726500004D6172202038203257
:103200003032340006005250BBFF3CB6E0310010B3
:1032100006005250E182887FC831001006005250EB
:10322000D3F07542C03100100D0A000050494F2004
:103230003120534D20282564202D20342920616C15
:10324000726561647920636C61696D65640000007A
:1032500050494F203020534D20256420616C726509
:1032600061647920636C61696D6564004E6F2070E4
:10327000726F6772616D207370616365000000009A
:10328000AC020010A00200109402001004320010E2
:0C32900088020010103200101C320010E8
:10329C00F0B5C646150000B504001E000268EFF339
:1032AC00108172B61368002BFCD0BFF35F8F042320
:1032BC00E356002B2DDB2268BFF35F8F00201060DC
:1032CC0081F31088D0221206127852B290469A429C
:1032DC0003D1002080BCB846F0BD00270BE023686A
:1032EC00BFF35F8F1F6081F310882800310000F05E
:1032FC00D3F80028EDD12268EFF3108172B6136871
:10330C00002BFCD0BFF35F8F23797F2BE7D943468B
:10331C0002E0D0231B061B6823712368BFF35F8F69
:10332C0000221A6081F310880120D3E70268EFF3C2
:10333C00108172B61368002BFCD0BFF35F8FFF2394
:10334C0003710368BFF35F8F00221A6081F310884A
:10335C0040BF7047084810B50378002B0AD1802372
:10336C000649074A5B051C68CC5004339342FAD1DA
:10337C000123037010BDC046F41000204C0F001048
:10338C000001001010B5024B0133984710BDC04628
:10339C004C0F0020034B1A68C0239B009343024A36
:1033AC00136070470C8001400C900140054B1A686B
:1033BC0080239B005340C02292001340024A1360AA
:1033CC007047C0460C8001400C9001401423F0B5AE
:1033DC00D6464F4646469A46814618880433C0B5B1
:1033EC0098460E001B88274914009847534607003F
:1033FC001888434624491B8898475346050018886B
:10340C00434622491B8898478046FFF7A3FFB847DD
:10341C00A847FFF7CBFF002C1BD0C02122000827A8
:10342C00022049053D008B6A1D4018420BD0002C30
:10343C0009D0131B0D2B1FD84B461B78013C0B6678
:10344C0001239C46E1442300002D0CD11343002B97
:10345C00E8D1FFF79FFFC047FFF794FFE0BCBA46E7
:10346C00B146A846F0BD002AF1D00B6E013A33707C
:10347C00130001362343EAE7002DD3D0002AD1D024
:10348C00F3E7C0464946000045580000464300009B
:10349C007047C0460000000001B40248844601BCDD
:1034AC00604700BF65100010409C000002001A1B12
:1034BC000000205000000000100000000000000080
:1034CC0000000100000000000000000000000200ED
:1034DC0000000000000000000000030000000000DD
:1034EC00000000000000FF000000000001B548686B
:1034FC0001318E460047704609380149884701BDA5
:10350C00490900104C03002000000000E00B0020D3
:10351C007410002000000000000000008410002047
:10352C00000000000000000010000000000000007F
:10353C00503300004C330000543300005233000071
:10354C004D5300004D430000533400004334000041
:10355C00880300200000000000000000740600201A
:10356C00DC060020440700200000000000000000E2
:10357C00000000000000000000000000000000003F
:10358C00000000000000000000000000000000002F
:10359C00000000000000000000000000000000001F
:1035AC00000000000000000000000000000000000F
:1035BC0000000000000000000000000000000000FF
:1035CC0000000000000000000000000000000000EF
:1035DC0000000000000000000000000000000000DF
:1035EC0000000000000000000000000000000000CF
:1035FC0000000000000000000000000000000000BF
:10360C0001000000000000000E33CDAB34126DE65B
:10361C00ECDE05000B0000000000000000000000C4
:10362C00000000000000000000000000000000008E
:10363C00000000000000000000000000000000007E
:10364C00000000000000000000000000000000006E
:10365C00000000000000000000000000000000005E
:10398C00FFFFFFFF0000020000000000000000002D
:10399C00B8070020B8070020C0070020C00700208F
:1039AC00C8070020C8070020D0070020D00700203F
:1039BC00D8070020D8070020E0070020E0070020EF
:1039CC00E8070020E8070020F0070020F00700209F
:1039DC00F8070020F807002000080020000800204D
:1039EC0008080020080800201008002010080020FB
:1039FC0018080020180800202008002020080020AB
:103A0C00280800202808002030080020300800205A
:103A1C00380800203808002040080020400800200A
:103A2C0048080020480800205008002050080020BA
:103A3C00580800205808002060080020600800206A
:103A4C00680800206808002070080020700800201A
:103A5C0078080020780800208008002080080020CA
:103A6C00880800208808002090080020900800207A
:103A7C009808002098080020A0080020A00800202A
:103A8C00A8080020A8080020B0080020B0080020DA
:103A9C00B8080020B8080020C0080020C00800208A
:103AAC00C8080020C8080020D0080020D00800203A
:103ABC00D8080020D8080020E0080020E0080020EA
:103ACC00E8080020E8080020F0080020F00800209A
:103ADC00F8080020F8080020000900200009002048
:103AEC0008090020080900201009002010090020F6
:103AFC0018090020180900202009002020090020A6
:103B0C002809002028090020300900203009002055
:103B1C003809002038090020400900204009002005
:103B2C0048090020480900205009002050090020B5
:103B3C005809002058090020600900206009002065
:103B4C006809002068090020700900207009002015
:103B5C0078090020780900208009002080090020C5
:103B6C008809002088090020900900209009002075
:103B7C009809002098090020A0090020A009002025
:103B8C00A8090020A8090020B0090020B0090020D5
:103B9C00B8090020B8090020C0090020C009002085
:103BAC00C8090020C8090020D0090020D009002035
:103BBC00D8090020D8090020E0090020E0090020E5
:103BCC00E8090020E8090020F0090020F009002095
:103BDC00F8090020F8090020000A0020000A002043
:103BEC00080A0020080A0020100A0020100A0020F1
:103BFC00180A0020180A0020200A0020200A0020A1
:103C0C00280A0020280A0020300A0020300A002050
:103C1C00380A0020380A0020400A0020400A002000
:103C2C00480A0020480A0020500A0020500A0020B0
:103C3C00580A0020580A0020600A0020600A002060
:103C4C00680A0020680A0020700A0020700A002010
:103C5C00780A0020780A0020800A0020800A0020C0
:103C6C00880A0020880A0020900A0020900A002070
:103C7C00980A0020980A0020A00A0020A00A002020
:103C8C00A80A0020A80A0020B00A0020B00A0020D0
:103C9C00B80A0020B80A0020C00A0020C00A002080
:103CAC00C80A0020C80A0020D00A0020D00A002030
:103CBC00D80A0020D80A0020E00A0020E00A0020E0
:103CCC00E80A0020E80A0020F00A0020F00A002090
:103CDC00F80A0020F80A0020000B0020000B00203E
:103CEC00080B0020080B0020100B0020100B0020EC
:103CFC00180B0020180B0020200B0020200B00209C
:103D0C00280B0020280B0020300B0020300B00204B
:103D1C00380B0020380B0020400B0020400B0020FB
:103D2C00480B0020480B0020500B0020500B0020AB
:103D3C00580B0020580B0020600B0020600B00205B
:103D4C00680B0020680B0020700B0020700B00200B
:103D5C00780B0020780B0020800B0020800B0020BB
:103D6C00880B0020880B0020900B0020900B00206B
:103D7C00980B0020980B0020A00B0020A00B00201B
:103D8C00A80B0020A80B0020B00B0020B00B0020CB
:103D9C000000000000000000BD1F0010F11C00100E
:103DAC000D1E0010011F00103103001079220010AD
:04000005100001E9FD
:00000001FF
